{
  "_format": "hh-sol-artifact-1",
  "contractName": "DynamicSvgNft",
  "sourceName": "contracts/DynamicSvgNft.sol",
  "abi": [
    {
      "inputs": [
        {
          "internalType": "address",
          "name": "priceFeedAddress",
          "type": "address"
        },
        {
          "internalType": "string",
          "name": "_lowSvg",
          "type": "string"
        },
        {
          "internalType": "string",
          "name": "_highSvg",
          "type": "string"
        }
      ],
      "stateMutability": "nonpayable",
      "type": "constructor"
    },
    {
      "anonymous": false,
      "inputs": [
        {
          "indexed": true,
          "internalType": "address",
          "name": "owner",
          "type": "address"
        },
        {
          "indexed": true,
          "internalType": "address",
          "name": "approved",
          "type": "address"
        },
        {
          "indexed": true,
          "internalType": "uint256",
          "name": "tokenId",
          "type": "uint256"
        }
      ],
      "name": "Approval",
      "type": "event"
    },
    {
      "anonymous": false,
      "inputs": [
        {
          "indexed": true,
          "internalType": "address",
          "name": "owner",
          "type": "address"
        },
        {
          "indexed": true,
          "internalType": "address",
          "name": "operator",
          "type": "address"
        },
        {
          "indexed": false,
          "internalType": "bool",
          "name": "approved",
          "type": "bool"
        }
      ],
      "name": "ApprovalForAll",
      "type": "event"
    },
    {
      "anonymous": false,
      "inputs": [
        {
          "indexed": true,
          "internalType": "uint256",
          "name": "tokenId",
          "type": "uint256"
        },
        {
          "indexed": false,
          "internalType": "int256",
          "name": "highValue",
          "type": "int256"
        }
      ],
      "name": "CreatedNFT",
      "type": "event"
    },
    {
      "anonymous": false,
      "inputs": [
        {
          "indexed": true,
          "internalType": "address",
          "name": "from",
          "type": "address"
        },
        {
          "indexed": true,
          "internalType": "address",
          "name": "to",
          "type": "address"
        },
        {
          "indexed": true,
          "internalType": "uint256",
          "name": "tokenId",
          "type": "uint256"
        }
      ],
      "name": "Transfer",
      "type": "event"
    },
    {
      "inputs": [
        {
          "internalType": "address",
          "name": "to",
          "type": "address"
        },
        {
          "internalType": "uint256",
          "name": "tokenId",
          "type": "uint256"
        }
      ],
      "name": "approve",
      "outputs": [],
      "stateMutability": "nonpayable",
      "type": "function"
    },
    {
      "inputs": [
        {
          "internalType": "address",
          "name": "owner",
          "type": "address"
        }
      ],
      "name": "balanceOf",
      "outputs": [
        {
          "internalType": "uint256",
          "name": "",
          "type": "uint256"
        }
      ],
      "stateMutability": "view",
      "type": "function"
    },
    {
      "inputs": [
        {
          "internalType": "uint256",
          "name": "tokenId",
          "type": "uint256"
        }
      ],
      "name": "getApproved",
      "outputs": [
        {
          "internalType": "address",
          "name": "",
          "type": "address"
        }
      ],
      "stateMutability": "view",
      "type": "function"
    },
    {
      "inputs": [],
      "name": "getHighImageUri",
      "outputs": [
        {
          "internalType": "string",
          "name": "",
          "type": "string"
        }
      ],
      "stateMutability": "view",
      "type": "function"
    },
    {
      "inputs": [],
      "name": "getLowImageUri",
      "outputs": [
        {
          "internalType": "string",
          "name": "",
          "type": "string"
        }
      ],
      "stateMutability": "view",
      "type": "function"
    },
    {
      "inputs": [],
      "name": "getTokenCounter",
      "outputs": [
        {
          "internalType": "uint256",
          "name": "",
          "type": "uint256"
        }
      ],
      "stateMutability": "view",
      "type": "function"
    },
    {
      "inputs": [
        {
          "internalType": "address",
          "name": "owner",
          "type": "address"
        },
        {
          "internalType": "address",
          "name": "operator",
          "type": "address"
        }
      ],
      "name": "isApprovedForAll",
      "outputs": [
        {
          "internalType": "bool",
          "name": "",
          "type": "bool"
        }
      ],
      "stateMutability": "view",
      "type": "function"
    },
    {
      "inputs": [
        {
          "internalType": "int256",
          "name": "highValue",
          "type": "int256"
        }
      ],
      "name": "mintNft",
      "outputs": [],
      "stateMutability": "nonpayable",
      "type": "function"
    },
    {
      "inputs": [],
      "name": "name",
      "outputs": [
        {
          "internalType": "string",
          "name": "",
          "type": "string"
        }
      ],
      "stateMutability": "view",
      "type": "function"
    },
    {
      "inputs": [
        {
          "internalType": "uint256",
          "name": "tokenId",
          "type": "uint256"
        }
      ],
      "name": "ownerOf",
      "outputs": [
        {
          "internalType": "address",
          "name": "",
          "type": "address"
        }
      ],
      "stateMutability": "view",
      "type": "function"
    },
    {
      "inputs": [
        {
          "internalType": "uint256",
          "name": "",
          "type": "uint256"
        }
      ],
      "name": "s_tokenIdToHighValue",
      "outputs": [
        {
          "internalType": "int256",
          "name": "",
          "type": "int256"
        }
      ],
      "stateMutability": "view",
      "type": "function"
    },
    {
      "inputs": [
        {
          "internalType": "address",
          "name": "from",
          "type": "address"
        },
        {
          "internalType": "address",
          "name": "to",
          "type": "address"
        },
        {
          "internalType": "uint256",
          "name": "tokenId",
          "type": "uint256"
        }
      ],
      "name": "safeTransferFrom",
      "outputs": [],
      "stateMutability": "nonpayable",
      "type": "function"
    },
    {
      "inputs": [
        {
          "internalType": "address",
          "name": "from",
          "type": "address"
        },
        {
          "internalType": "address",
          "name": "to",
          "type": "address"
        },
        {
          "internalType": "uint256",
          "name": "tokenId",
          "type": "uint256"
        },
        {
          "internalType": "bytes",
          "name": "data",
          "type": "bytes"
        }
      ],
      "name": "safeTransferFrom",
      "outputs": [],
      "stateMutability": "nonpayable",
      "type": "function"
    },
    {
      "inputs": [
        {
          "internalType": "address",
          "name": "operator",
          "type": "address"
        },
        {
          "internalType": "bool",
          "name": "approved",
          "type": "bool"
        }
      ],
      "name": "setApprovalForAll",
      "outputs": [],
      "stateMutability": "nonpayable",
      "type": "function"
    },
    {
      "inputs": [
        {
          "internalType": "bytes4",
          "name": "interfaceId",
          "type": "bytes4"
        }
      ],
      "name": "supportsInterface",
      "outputs": [
        {
          "internalType": "bool",
          "name": "",
          "type": "bool"
        }
      ],
      "stateMutability": "view",
      "type": "function"
    },
    {
      "inputs": [
        {
          "internalType": "string",
          "name": "svg",
          "type": "string"
        }
      ],
      "name": "svgToImgUri",
      "outputs": [
        {
          "internalType": "string",
          "name": "",
          "type": "string"
        }
      ],
      "stateMutability": "pure",
      "type": "function"
    },
    {
      "inputs": [],
      "name": "symbol",
      "outputs": [
        {
          "internalType": "string",
          "name": "",
          "type": "string"
        }
      ],
      "stateMutability": "view",
      "type": "function"
    },
    {
      "inputs": [
        {
          "internalType": "uint256",
          "name": "tokenId",
          "type": "uint256"
        }
      ],
      "name": "tokenURI",
      "outputs": [
        {
          "internalType": "string",
          "name": "",
          "type": "string"
        }
      ],
      "stateMutability": "view",
      "type": "function"
    },
    {
      "inputs": [
        {
          "internalType": "address",
          "name": "from",
          "type": "address"
        },
        {
          "internalType": "address",
          "name": "to",
          "type": "address"
        },
        {
          "internalType": "uint256",
          "name": "tokenId",
          "type": "uint256"
        }
      ],
      "name": "transferFrom",
      "outputs": [],
      "stateMutability": "nonpayable",
      "type": "function"
    }
  ],
  "bytecode": "0x60a06040523480156200001157600080fd5b506040516200395338038062003953833981810160405281019062000037919062000652565b6040518060400160405280600f81526020017f44796e616d696320537667204e667400000000000000000000000000000000008152506040518060400160405280600381526020017f44534e00000000000000000000000000000000000000000000000000000000008152508160009080519060200190620000bb929190620003a0565b508060019080519060200190620000d4929190620003a0565b5050508273ffffffffffffffffffffffffffffffffffffffff1660808173ffffffffffffffffffffffffffffffffffffffff1681525050600060068190555062000124826200016e60201b60201c565b600790805190602001906200013b929190620003a0565b506200014d816200016e60201b60201c565b6008908051906020019062000164929190620003a0565b505050506200093d565b60606000620001a98360405160200162000189919062000739565b6040516020818303038152906040526200021260201b62000f291760201c565b905060006040518060400160405280601a81526020017f646174613a696d6167652f7376672b786d6c3b6261736536342c00000000000081525082604051602001620001f792919062000752565b60405160208183030381529060405290508092505050919050565b606060008251141562000237576040518060200160405280600081525090506200039b565b6000604051806060016040528060408152602001620039136040913990506000600360028551620002699190620007b3565b6200027591906200083f565b600462000283919062000877565b90506000602082620002969190620007b3565b67ffffffffffffffff811115620002b257620002b1620004e4565b5b6040519080825280601f01601f191660200182016040528015620002e55781602001600182028036833780820191505090505b509050818152600183018586518101602084015b8183101562000356576003830192508251603f8160121c168501518253600182019150603f81600c1c168501518253600182019150603f8160061c168501518253600182019150603f8116850151825360018201915050620002f9565b60038951066001811462000373576002811462000384576200038f565b613d3d60f01b60028303526200038f565b603d60f81b60018303525b50505050508093505050505b919050565b828054620003ae9062000907565b90600052602060002090601f016020900481019282620003d257600085556200041e565b82601f10620003ed57805160ff19168380011785556200041e565b828001600101855582156200041e579182015b828111156200041d57825182559160200191906001019062000400565b5b5090506200042d919062000431565b5090565b5b808211156200044c57600081600090555060010162000432565b5090565b6000604051905090565b600080fd5b600080fd5b600073ffffffffffffffffffffffffffffffffffffffff82169050919050565b6000620004918262000464565b9050919050565b620004a38162000484565b8114620004af57600080fd5b50565b600081519050620004c38162000498565b92915050565b600080fd5b600080fd5b6000601f19601f8301169050919050565b7f4e487b7100000000000000000000000000000000000000000000000000000000600052604160045260246000fd5b6200051e82620004d3565b810181811067ffffffffffffffff8211171562000540576200053f620004e4565b5b80604052505050565b60006200055562000450565b905062000563828262000513565b919050565b600067ffffffffffffffff821115620005865762000585620004e4565b5b6200059182620004d3565b9050602081019050919050565b60005b83811015620005be578082015181840152602081019050620005a1565b83811115620005ce576000848401525b50505050565b6000620005eb620005e58462000568565b62000549565b9050828152602081018484840111156200060a5762000609620004ce565b5b620006178482856200059e565b509392505050565b600082601f830112620006375762000636620004c9565b5b815162000649848260208601620005d4565b91505092915050565b6000806000606084860312156200066e576200066d6200045a565b5b60006200067e86828701620004b2565b935050602084015167ffffffffffffffff811115620006a257620006a16200045f565b5b620006b0868287016200061f565b925050604084015167ffffffffffffffff811115620006d457620006d36200045f565b5b620006e2868287016200061f565b9150509250925092565b600081519050919050565b600081905092915050565b60006200070f82620006ec565b6200071b8185620006f7565b93506200072d8185602086016200059e565b80840191505092915050565b600062000747828462000702565b915081905092915050565b600062000760828562000702565b91506200076e828462000702565b91508190509392505050565b6000819050919050565b7f4e487b7100000000000000000000000000000000000000000000000000000000600052601160045260246000fd5b6000620007c0826200077a565b9150620007cd836200077a565b9250827fffffffffffffffffffffffffffffffffffffffffffffffffffffffffffffffff0382111562000805576200080462000784565b5b828201905092915050565b7f4e487b7100000000000000000000000000000000000000000000000000000000600052601260045260246000fd5b60006200084c826200077a565b915062000859836200077a565b9250826200086c576200086b62000810565b5b828204905092915050565b600062000884826200077a565b915062000891836200077a565b9250817fffffffffffffffffffffffffffffffffffffffffffffffffffffffffffffffff0483118215151615620008cd57620008cc62000784565b5b828202905092915050565b7f4e487b7100000000000000000000000000000000000000000000000000000000600052602260045260246000fd5b600060028204905060018216806200092057607f821691505b60208210811415620009375762000936620008d8565b5b50919050565b608051612fba620009596000396000610c360152612fba6000f3fe608060405234801561001057600080fd5b50600436106101215760003560e01c806367e5366c116100ad578063a22cb46511610071578063a22cb4651461031c578063b88d4fde14610338578063c87b56dd14610354578063e425aded14610384578063e985e9c5146103b457610121565b806367e5366c146102745780636e02007d1461029257806370a08231146102b05780638fb7e271146102e057806395d89b41146102fe57610121565b80631e930812116100f45780631e930812146101c057806323b872dd146101dc57806328e83cc8146101f857806342842e0e146102285780636352211e1461024457610121565b806301ffc9a71461012657806306fdde0314610156578063081812fc14610174578063095ea7b3146101a4575b600080fd5b610140600480360381019061013b9190611c09565b6103e4565b60405161014d9190611c51565b60405180910390f35b61015e6104c6565b60405161016b9190611d05565b60405180910390f35b61018e60048036038101906101899190611d5d565b610558565b60405161019b9190611dcb565b60405180910390f35b6101be60048036038101906101b99190611e12565b61059e565b005b6101da60048036038101906101d59190611e88565b6106b6565b005b6101f660048036038101906101f19190611eb5565b610733565b005b610212600480360381019061020d919061203d565b610793565b60405161021f9190611d05565b60405180910390f35b610242600480360381019061023d9190611eb5565b610826565b005b61025e60048036038101906102599190611d5d565b610846565b60405161026b9190611dcb565b60405180910390f35b61027c6108f8565b6040516102899190611d05565b60405180910390f35b61029a61098a565b6040516102a79190612095565b60405180910390f35b6102ca60048036038101906102c591906120b0565b610994565b6040516102d79190612095565b60405180910390f35b6102e8610a4c565b6040516102f59190611d05565b60405180910390f35b610306610ade565b6040516103139190611d05565b60405180910390f35b61033660048036038101906103319190612109565b610b70565b005b610352600480360381019061034d91906121ea565b610b86565b005b61036e60048036038101906103699190611d5d565b610be8565b60405161037b9190611d05565b60405180910390f35b61039e60048036038101906103999190611d5d565b610e7d565b6040516103ab919061227c565b60405180910390f35b6103ce60048036038101906103c99190612297565b610e95565b6040516103db9190611c51565b60405180910390f35b60007f80ac58cd000000000000000000000000000000000000000000000000000000007bffffffffffffffffffffffffffffffffffffffffffffffffffffffff1916827bffffffffffffffffffffffffffffffffffffffffffffffffffffffff191614806104af57507f5b5e139f000000000000000000000000000000000000000000000000000000007bffffffffffffffffffffffffffffffffffffffffffffffffffffffff1916827bffffffffffffffffffffffffffffffffffffffffffffffffffffffff1916145b806104bf57506104be826110a2565b5b9050919050565b6060600080546104d590612306565b80601f016020809104026020016040519081016040528092919081815260200182805461050190612306565b801561054e5780601f106105235761010080835404028352916020019161054e565b820191906000526020600020905b81548152906001019060200180831161053157829003601f168201915b5050505050905090565b60006105638261110c565b6004600083815260200190815260200160002060009054906101000a900473ffffffffffffffffffffffffffffffffffffffff169050919050565b60006105a982610846565b90508073ffffffffffffffffffffffffffffffffffffffff168373ffffffffffffffffffffffffffffffffffffffff16141561061a576040517f08c379a0000000000000000000000000000000000000000000000000000000008152600401610611906123aa565b60405180910390fd5b8073ffffffffffffffffffffffffffffffffffffffff16610639611157565b73ffffffffffffffffffffffffffffffffffffffff161480610668575061066781610662611157565b610e95565b5b6106a7576040517f08c379a000000000000000000000000000000000000000000000000000000000815260040161069e9061243c565b60405180910390fd5b6106b1838361115f565b505050565b80600960006006548152602001908152602001600020819055506006547f882d3b5a729a8bb95cf6c0083c99b42ecd9637123d4425bd7b768877fd8af8b082604051610702919061227c565b60405180910390a261071633600654611218565b600160066000828254610729919061248b565b9250508190555050565b61074461073e611157565b82611236565b610783576040517f08c379a000000000000000000000000000000000000000000000000000000000815260040161077a90612553565b60405180910390fd5b61078e8383836112cb565b505050565b606060006107bf836040516020016107ab91906125af565b604051602081830303815290604052610f29565b905060006040518060400160405280601a81526020017f646174613a696d6167652f7376672b786d6c3b6261736536342c0000000000008152508260405160200161080b9291906125c6565b60405160208183030381529060405290508092505050919050565b61084183838360405180602001604052806000815250610b86565b505050565b6000806002600084815260200190815260200160002060009054906101000a900473ffffffffffffffffffffffffffffffffffffffff169050600073ffffffffffffffffffffffffffffffffffffffff168173ffffffffffffffffffffffffffffffffffffffff1614156108ef576040517f08c379a00000000000000000000000000000000000000000000000000000000081526004016108e690612636565b60405180910390fd5b80915050919050565b60606008805461090790612306565b80601f016020809104026020016040519081016040528092919081815260200182805461093390612306565b80156109805780601f1061095557610100808354040283529160200191610980565b820191906000526020600020905b81548152906001019060200180831161096357829003601f168201915b5050505050905090565b6000600654905090565b60008073ffffffffffffffffffffffffffffffffffffffff168273ffffffffffffffffffffffffffffffffffffffff161415610a05576040517f08c379a00000000000000000000000000000000000000000000000000000000081526004016109fc906126c8565b60405180910390fd5b600360008373ffffffffffffffffffffffffffffffffffffffff1673ffffffffffffffffffffffffffffffffffffffff168152602001908152602001600020549050919050565b606060078054610a5b90612306565b80601f0160208091040260200160405190810160405280929190818152602001828054610a8790612306565b8015610ad45780601f10610aa957610100808354040283529160200191610ad4565b820191906000526020600020905b815481529060010190602001808311610ab757829003601f168201915b5050505050905090565b606060018054610aed90612306565b80601f0160208091040260200160405190810160405280929190818152602001828054610b1990612306565b8015610b665780601f10610b3b57610100808354040283529160200191610b66565b820191906000526020600020905b815481529060010190602001808311610b4957829003601f168201915b5050505050905090565b610b82610b7b611157565b8383611532565b5050565b610b97610b91611157565b83611236565b610bd6576040517f08c379a0000000000000000000000000000000000000000000000000000000008152600401610bcd90612553565b60405180910390fd5b610be28484848461169f565b50505050565b6060610bf3826116fb565b610c32576040517f08c379a0000000000000000000000000000000000000000000000000000000008152600401610c299061275a565b60405180910390fd5b60007f000000000000000000000000000000000000000000000000000000000000000073ffffffffffffffffffffffffffffffffffffffff1663feaf968c6040518163ffffffff1660e01b815260040160a06040518083038186803b158015610c9a57600080fd5b505afa158015610cae573d6000803e3d6000fd5b505050506040513d601f19601f82011682018060405250810190610cd291906127e6565b505050915050600060078054610ce790612306565b80601f0160208091040260200160405190810160405280929190818152602001828054610d1390612306565b8015610d605780601f10610d3557610100808354040283529160200191610d60565b820191906000526020600020905b815481529060010190602001808311610d4357829003601f168201915b5050505050905060096000858152602001908152602001600020548212610e0f5760088054610d8e90612306565b80601f0160208091040260200160405190810160405280929190818152602001828054610dba90612306565b8015610e075780601f10610ddc57610100808354040283529160200191610e07565b820191906000526020600020905b815481529060010190602001808311610dea57829003601f168201915b505050505090505b6000610e42610e1c6104c6565b83604051602001610e2e929190612a29565b604051602081830303815290604052610f29565b90506000610e4e611767565b82604051602001610e609291906125c6565b604051602081830303815290604052905080945050505050919050565b60096020528060005260406000206000915090505481565b6000600560008473ffffffffffffffffffffffffffffffffffffffff1673ffffffffffffffffffffffffffffffffffffffff16815260200190815260200160002060008373ffffffffffffffffffffffffffffffffffffffff1673ffffffffffffffffffffffffffffffffffffffff16815260200190815260200160002060009054906101000a900460ff16905092915050565b6060600082511415610f4c5760405180602001604052806000815250905061109d565b6000604051806060016040528060408152602001612f456040913990506000600360028551610f7b919061248b565b610f859190612aa8565b6004610f919190612ad9565b90506000602082610fa2919061248b565b67ffffffffffffffff811115610fbb57610fba611f12565b5b6040519080825280601f01601f191660200182016040528015610fed5781602001600182028036833780820191505090505b509050818152600183018586518101602084015b8183101561105c576003830192508251603f8160121c168501518253600182019150603f81600c1c168501518253600182019150603f8160061c168501518253600182019150603f8116850151825360018201915050611001565b600389510660018114611076576002811461108657611091565b613d3d60f01b6002830352611091565b603d60f81b60018303525b50505050508093505050505b919050565b60007f01ffc9a7000000000000000000000000000000000000000000000000000000007bffffffffffffffffffffffffffffffffffffffffffffffffffffffff1916827bffffffffffffffffffffffffffffffffffffffffffffffffffffffff1916149050919050565b611115816116fb565b611154576040517f08c379a000000000000000000000000000000000000000000000000000000000815260040161114b90612636565b60405180910390fd5b50565b600033905090565b816004600083815260200190815260200160002060006101000a81548173ffffffffffffffffffffffffffffffffffffffff021916908373ffffffffffffffffffffffffffffffffffffffff160217905550808273ffffffffffffffffffffffffffffffffffffffff166111d283610846565b73ffffffffffffffffffffffffffffffffffffffff167f8c5be1e5ebec7d5bd14f71427d1e84f3dd0314c0f7b2291e5b200ac8c7c3b92560405160405180910390a45050565b6112328282604051806020016040528060008152506117a4565b5050565b60008061124283610846565b90508073ffffffffffffffffffffffffffffffffffffffff168473ffffffffffffffffffffffffffffffffffffffff16148061128457506112838185610e95565b5b806112c257508373ffffffffffffffffffffffffffffffffffffffff166112aa84610558565b73ffffffffffffffffffffffffffffffffffffffff16145b91505092915050565b8273ffffffffffffffffffffffffffffffffffffffff166112eb82610846565b73ffffffffffffffffffffffffffffffffffffffff1614611341576040517f08c379a000000000000000000000000000000000000000000000000000000000815260040161133890612ba5565b60405180910390fd5b600073ffffffffffffffffffffffffffffffffffffffff168273ffffffffffffffffffffffffffffffffffffffff1614156113b1576040517f08c379a00000000000000000000000000000000000000000000000000000000081526004016113a890612c37565b60405180910390fd5b6113bc8383836117ff565b6113c760008261115f565b6001600360008573ffffffffffffffffffffffffffffffffffffffff1673ffffffffffffffffffffffffffffffffffffffff16815260200190815260200160002060008282546114179190612c57565b925050819055506001600360008473ffffffffffffffffffffffffffffffffffffffff1673ffffffffffffffffffffffffffffffffffffffff168152602001908152602001600020600082825461146e919061248b565b92505081905550816002600083815260200190815260200160002060006101000a81548173ffffffffffffffffffffffffffffffffffffffff021916908373ffffffffffffffffffffffffffffffffffffffff160217905550808273ffffffffffffffffffffffffffffffffffffffff168473ffffffffffffffffffffffffffffffffffffffff167fddf252ad1be2c89b69c2b068fc378daa952ba7f163c4a11628f55a4df523b3ef60405160405180910390a461152d838383611804565b505050565b8173ffffffffffffffffffffffffffffffffffffffff168373ffffffffffffffffffffffffffffffffffffffff1614156115a1576040517f08c379a000000000000000000000000000000000000000000000000000000000815260040161159890612cd7565b60405180910390fd5b80600560008573ffffffffffffffffffffffffffffffffffffffff1673ffffffffffffffffffffffffffffffffffffffff16815260200190815260200160002060008473ffffffffffffffffffffffffffffffffffffffff1673ffffffffffffffffffffffffffffffffffffffff16815260200190815260200160002060006101000a81548160ff0219169083151502179055508173ffffffffffffffffffffffffffffffffffffffff168373ffffffffffffffffffffffffffffffffffffffff167f17307eab39ab6107e8899845ad3d59bd9653f200f220920489ca2b5937696c31836040516116929190611c51565b60405180910390a3505050565b6116aa8484846112cb565b6116b684848484611809565b6116f5576040517f08c379a00000000000000000000000000000000000000000000000000000000081526004016116ec90612d69565b60405180910390fd5b50505050565b60008073ffffffffffffffffffffffffffffffffffffffff166002600084815260200190815260200160002060009054906101000a900473ffffffffffffffffffffffffffffffffffffffff1673ffffffffffffffffffffffffffffffffffffffff1614159050919050565b60606040518060400160405280601d81526020017f646174613a6170706c69636174696f6e2f6a736f6e3b6261736536342c000000815250905090565b6117ae83836119a0565b6117bb6000848484611809565b6117fa576040517f08c379a00000000000000000000000000000000000000000000000000000000081526004016117f190612d69565b60405180910390fd5b505050565b505050565b505050565b600061182a8473ffffffffffffffffffffffffffffffffffffffff16611b7a565b15611993578373ffffffffffffffffffffffffffffffffffffffff1663150b7a02611853611157565b8786866040518563ffffffff1660e01b81526004016118759493929190612dde565b602060405180830381600087803b15801561188f57600080fd5b505af19250505080156118c057506040513d601f19601f820116820180604052508101906118bd9190612e3f565b60015b611943573d80600081146118f0576040519150601f19603f3d011682016040523d82523d6000602084013e6118f5565b606091505b5060008151141561193b576040517f08c379a000000000000000000000000000000000000000000000000000000000815260040161193290612d69565b60405180910390fd5b805181602001fd5b63150b7a0260e01b7bffffffffffffffffffffffffffffffffffffffffffffffffffffffff1916817bffffffffffffffffffffffffffffffffffffffffffffffffffffffff191614915050611998565b600190505b949350505050565b600073ffffffffffffffffffffffffffffffffffffffff168273ffffffffffffffffffffffffffffffffffffffff161415611a10576040517f08c379a0000000000000000000000000000000000000000000000000000000008152600401611a0790612eb8565b60405180910390fd5b611a19816116fb565b15611a59576040517f08c379a0000000000000000000000000000000000000000000000000000000008152600401611a5090612f24565b60405180910390fd5b611a65600083836117ff565b6001600360008473ffffffffffffffffffffffffffffffffffffffff1673ffffffffffffffffffffffffffffffffffffffff1681526020019081526020016000206000828254611ab5919061248b565b92505081905550816002600083815260200190815260200160002060006101000a81548173ffffffffffffffffffffffffffffffffffffffff021916908373ffffffffffffffffffffffffffffffffffffffff160217905550808273ffffffffffffffffffffffffffffffffffffffff16600073ffffffffffffffffffffffffffffffffffffffff167fddf252ad1be2c89b69c2b068fc378daa952ba7f163c4a11628f55a4df523b3ef60405160405180910390a4611b7660008383611804565b5050565b6000808273ffffffffffffffffffffffffffffffffffffffff163b119050919050565b6000604051905090565b600080fd5b600080fd5b60007fffffffff0000000000000000000000000000000000000000000000000000000082169050919050565b611be681611bb1565b8114611bf157600080fd5b50565b600081359050611c0381611bdd565b92915050565b600060208284031215611c1f57611c1e611ba7565b5b6000611c2d84828501611bf4565b91505092915050565b60008115159050919050565b611c4b81611c36565b82525050565b6000602082019050611c666000830184611c42565b92915050565b600081519050919050565b600082825260208201905092915050565b60005b83811015611ca6578082015181840152602081019050611c8b565b83811115611cb5576000848401525b50505050565b6000601f19601f8301169050919050565b6000611cd782611c6c565b611ce18185611c77565b9350611cf1818560208601611c88565b611cfa81611cbb565b840191505092915050565b60006020820190508181036000830152611d1f8184611ccc565b905092915050565b6000819050919050565b611d3a81611d27565b8114611d4557600080fd5b50565b600081359050611d5781611d31565b92915050565b600060208284031215611d7357611d72611ba7565b5b6000611d8184828501611d48565b91505092915050565b600073ffffffffffffffffffffffffffffffffffffffff82169050919050565b6000611db582611d8a565b9050919050565b611dc581611daa565b82525050565b6000602082019050611de06000830184611dbc565b92915050565b611def81611daa565b8114611dfa57600080fd5b50565b600081359050611e0c81611de6565b92915050565b60008060408385031215611e2957611e28611ba7565b5b6000611e3785828601611dfd565b9250506020611e4885828601611d48565b9150509250929050565b6000819050919050565b611e6581611e52565b8114611e7057600080fd5b50565b600081359050611e8281611e5c565b92915050565b600060208284031215611e9e57611e9d611ba7565b5b6000611eac84828501611e73565b91505092915050565b600080600060608486031215611ece57611ecd611ba7565b5b6000611edc86828701611dfd565b9350506020611eed86828701611dfd565b9250506040611efe86828701611d48565b9150509250925092565b600080fd5b600080fd5b7f4e487b7100000000000000000000000000000000000000000000000000000000600052604160045260246000fd5b611f4a82611cbb565b810181811067ffffffffffffffff82111715611f6957611f68611f12565b5b80604052505050565b6000611f7c611b9d565b9050611f888282611f41565b919050565b600067ffffffffffffffff821115611fa857611fa7611f12565b5b611fb182611cbb565b9050602081019050919050565b82818337600083830152505050565b6000611fe0611fdb84611f8d565b611f72565b905082815260208101848484011115611ffc57611ffb611f0d565b5b612007848285611fbe565b509392505050565b600082601f83011261202457612023611f08565b5b8135612034848260208601611fcd565b91505092915050565b60006020828403121561205357612052611ba7565b5b600082013567ffffffffffffffff81111561207157612070611bac565b5b61207d8482850161200f565b91505092915050565b61208f81611d27565b82525050565b60006020820190506120aa6000830184612086565b92915050565b6000602082840312156120c6576120c5611ba7565b5b60006120d484828501611dfd565b91505092915050565b6120e681611c36565b81146120f157600080fd5b50565b600081359050612103816120dd565b92915050565b600080604083850312156121205761211f611ba7565b5b600061212e85828601611dfd565b925050602061213f858286016120f4565b9150509250929050565b600067ffffffffffffffff82111561216457612163611f12565b5b61216d82611cbb565b9050602081019050919050565b600061218d61218884612149565b611f72565b9050828152602081018484840111156121a9576121a8611f0d565b5b6121b4848285611fbe565b509392505050565b600082601f8301126121d1576121d0611f08565b5b81356121e184826020860161217a565b91505092915050565b6000806000806080858703121561220457612203611ba7565b5b600061221287828801611dfd565b945050602061222387828801611dfd565b935050604061223487828801611d48565b925050606085013567ffffffffffffffff81111561225557612254611bac565b5b612261878288016121bc565b91505092959194509250565b61227681611e52565b82525050565b6000602082019050612291600083018461226d565b92915050565b600080604083850312156122ae576122ad611ba7565b5b60006122bc85828601611dfd565b92505060206122cd85828601611dfd565b9150509250929050565b7f4e487b7100000000000000000000000000000000000000000000000000000000600052602260045260246000fd5b6000600282049050600182168061231e57607f821691505b60208210811415612332576123316122d7565b5b50919050565b7f4552433732313a20617070726f76616c20746f2063757272656e74206f776e6560008201527f7200000000000000000000000000000000000000000000000000000000000000602082015250565b6000612394602183611c77565b915061239f82612338565b604082019050919050565b600060208201905081810360008301526123c381612387565b9050919050565b7f4552433732313a20617070726f76652063616c6c6572206973206e6f7420746f60008201527f6b656e206f776e6572206e6f7220617070726f76656420666f7220616c6c0000602082015250565b6000612426603e83611c77565b9150612431826123ca565b604082019050919050565b6000602082019050818103600083015261245581612419565b9050919050565b7f4e487b7100000000000000000000000000000000000000000000000000000000600052601160045260246000fd5b600061249682611d27565b91506124a183611d27565b9250827fffffffffffffffffffffffffffffffffffffffffffffffffffffffffffffffff038211156124d6576124d561245c565b5b828201905092915050565b7f4552433732313a2063616c6c6572206973206e6f7420746f6b656e206f776e6560008201527f72206e6f7220617070726f766564000000000000000000000000000000000000602082015250565b600061253d602e83611c77565b9150612548826124e1565b604082019050919050565b6000602082019050818103600083015261256c81612530565b9050919050565b600081905092915050565b600061258982611c6c565b6125938185612573565b93506125a3818560208601611c88565b80840191505092915050565b60006125bb828461257e565b915081905092915050565b60006125d2828561257e565b91506125de828461257e565b91508190509392505050565b7f4552433732313a20696e76616c696420746f6b656e2049440000000000000000600082015250565b6000612620601883611c77565b915061262b826125ea565b602082019050919050565b6000602082019050818103600083015261264f81612613565b9050919050565b7f4552433732313a2061646472657373207a65726f206973206e6f74206120766160008201527f6c6964206f776e65720000000000000000000000000000000000000000000000602082015250565b60006126b2602983611c77565b91506126bd82612656565b604082019050919050565b600060208201905081810360008301526126e1816126a5565b9050919050565b7f546f6b656e20717565727920666f722061206e6f6e2d6578697374656e74207460008201527f6f6b656e00000000000000000000000000000000000000000000000000000000602082015250565b6000612744602483611c77565b915061274f826126e8565b604082019050919050565b6000602082019050818103600083015261277381612737565b9050919050565b600069ffffffffffffffffffff82169050919050565b6127998161277a565b81146127a457600080fd5b50565b6000815190506127b681612790565b92915050565b6000815190506127cb81611e5c565b92915050565b6000815190506127e081611d31565b92915050565b600080600080600060a0868803121561280257612801611ba7565b5b6000612810888289016127a7565b9550506020612821888289016127bc565b9450506040612832888289016127d1565b9350506060612843888289016127d1565b9250506080612854888289016127a7565b9150509295509295909350565b7f7b226e616d65223a220000000000000000000000000000000000000000000000600082015250565b6000612897600983612573565b91506128a282612861565b600982019050919050565b7f222c20226465736372697074696f6e223a22416e204e4654207468617420636860008201527f616e676573206261736564206f6e2074686520436861696e6c696e6b2046656560208201527f64222c0000000000000000000000000000000000000000000000000000000000604082015250565b600061292f604383612573565b915061293a826128ad565b604382019050919050565b7f2261747472696275746573223a205b7b2274726169745f74797065223a20226360008201527f6f6f6c6e657373222c202276616c7565223a203130307d5d2c2022696d61676560208201527f223a220000000000000000000000000000000000000000000000000000000000604082015250565b60006129c7604383612573565b91506129d282612945565b604382019050919050565b7f227d000000000000000000000000000000000000000000000000000000000000600082015250565b6000612a13600283612573565b9150612a1e826129dd565b600282019050919050565b6000612a348261288a565b9150612a40828561257e565b9150612a4b82612922565b9150612a56826129ba565b9150612a62828461257e565b9150612a6d82612a06565b91508190509392505050565b7f4e487b7100000000000000000000000000000000000000000000000000000000600052601260045260246000fd5b6000612ab382611d27565b9150612abe83611d27565b925082612ace57612acd612a79565b5b828204905092915050565b6000612ae482611d27565b9150612aef83611d27565b9250817fffffffffffffffffffffffffffffffffffffffffffffffffffffffffffffffff0483118215151615612b2857612b2761245c565b5b828202905092915050565b7f4552433732313a207472616e736665722066726f6d20696e636f72726563742060008201527f6f776e6572000000000000000000000000000000000000000000000000000000602082015250565b6000612b8f602583611c77565b9150612b9a82612b33565b604082019050919050565b60006020820190508181036000830152612bbe81612b82565b9050919050565b7f4552433732313a207472616e7366657220746f20746865207a65726f2061646460008201527f7265737300000000000000000000000000000000000000000000000000000000602082015250565b6000612c21602483611c77565b9150612c2c82612bc5565b604082019050919050565b60006020820190508181036000830152612c5081612c14565b9050919050565b6000612c6282611d27565b9150612c6d83611d27565b925082821015612c8057612c7f61245c565b5b828203905092915050565b7f4552433732313a20617070726f766520746f2063616c6c657200000000000000600082015250565b6000612cc1601983611c77565b9150612ccc82612c8b565b602082019050919050565b60006020820190508181036000830152612cf081612cb4565b9050919050565b7f4552433732313a207472616e7366657220746f206e6f6e20455243373231526560008201527f63656976657220696d706c656d656e7465720000000000000000000000000000602082015250565b6000612d53603283611c77565b9150612d5e82612cf7565b604082019050919050565b60006020820190508181036000830152612d8281612d46565b9050919050565b600081519050919050565b600082825260208201905092915050565b6000612db082612d89565b612dba8185612d94565b9350612dca818560208601611c88565b612dd381611cbb565b840191505092915050565b6000608082019050612df36000830187611dbc565b612e006020830186611dbc565b612e0d6040830185612086565b8181036060830152612e1f8184612da5565b905095945050505050565b600081519050612e3981611bdd565b92915050565b600060208284031215612e5557612e54611ba7565b5b6000612e6384828501612e2a565b91505092915050565b7f4552433732313a206d696e7420746f20746865207a65726f2061646472657373600082015250565b6000612ea2602083611c77565b9150612ead82612e6c565b602082019050919050565b60006020820190508181036000830152612ed181612e95565b9050919050565b7f4552433732313a20746f6b656e20616c7265616479206d696e74656400000000600082015250565b6000612f0e601c83611c77565b9150612f1982612ed8565b602082019050919050565b60006020820190508181036000830152612f3d81612f01565b905091905056fe4142434445464748494a4b4c4d4e4f505152535455565758595a6162636465666768696a6b6c6d6e6f707172737475767778797a303132333435363738392b2fa2646970667358221220c3fe186a14d6a00e73b26c02c0d4fdcd949aea31774ad7470be16e24666c053664736f6c634300080900334142434445464748494a4b4c4d4e4f505152535455565758595a6162636465666768696a6b6c6d6e6f707172737475767778797a303132333435363738392b2f",
  "linkReferences": {},
  "deployedLinkReferences": {}
}