{
  "_format": "hh-sol-artifact-1",
  "contractName": "RandomIpfsNft",
  "sourceName": "contracts/RandomIpfsNft.sol",
  "abi": [
    {
      "inputs": [
        {
          "internalType": "address",
          "name": "vrfCoordinatorV2",
          "type": "address"
        },
        {
          "internalType": "uint64",
          "name": "subscriptionId",
          "type": "uint64"
        },
        {
          "internalType": "bytes32",
          "name": "gasLane",
          "type": "bytes32"
        },
        {
          "internalType": "uint32",
          "name": "callbackGasLimit",
          "type": "uint32"
        },
        {
          "internalType": "string[3]",
          "name": "dogTokenUris",
          "type": "string[3]"
        },
        {
          "internalType": "uint256",
          "name": "mintFee",
          "type": "uint256"
        }
      ],
      "stateMutability": "nonpayable",
      "type": "constructor"
    },
    {
      "inputs": [
        {
          "internalType": "address",
          "name": "have",
          "type": "address"
        },
        {
          "internalType": "address",
          "name": "want",
          "type": "address"
        }
      ],
      "name": "OnlyCoordinatorCanFulfill",
      "type": "error"
    },
    {
      "inputs": [],
      "name": "RandomIpfsNft__NeedMoreETHSent",
      "type": "error"
    },
    {
      "inputs": [],
      "name": "RandomIpfsNft__RangeOutOfBounds",
      "type": "error"
    },
    {
      "inputs": [],
      "name": "RandomIpfsNft__WithdrawTransactionFailed",
      "type": "error"
    },
    {
      "anonymous": false,
      "inputs": [
        {
          "indexed": true,
          "internalType": "address",
          "name": "owner",
          "type": "address"
        },
        {
          "indexed": true,
          "internalType": "address",
          "name": "approved",
          "type": "address"
        },
        {
          "indexed": true,
          "internalType": "uint256",
          "name": "tokenId",
          "type": "uint256"
        }
      ],
      "name": "Approval",
      "type": "event"
    },
    {
      "anonymous": false,
      "inputs": [
        {
          "indexed": true,
          "internalType": "address",
          "name": "owner",
          "type": "address"
        },
        {
          "indexed": true,
          "internalType": "address",
          "name": "operator",
          "type": "address"
        },
        {
          "indexed": false,
          "internalType": "bool",
          "name": "approved",
          "type": "bool"
        }
      ],
      "name": "ApprovalForAll",
      "type": "event"
    },
    {
      "anonymous": false,
      "inputs": [
        {
          "indexed": false,
          "internalType": "enum RandomIpfsNft.Breed",
          "name": "dogBreed",
          "type": "uint8"
        },
        {
          "indexed": false,
          "internalType": "address",
          "name": "minter",
          "type": "address"
        }
      ],
      "name": "NFTMinted",
      "type": "event"
    },
    {
      "anonymous": false,
      "inputs": [
        {
          "indexed": false,
          "internalType": "uint256",
          "name": "requestId",
          "type": "uint256"
        },
        {
          "indexed": false,
          "internalType": "address",
          "name": "requestor",
          "type": "address"
        }
      ],
      "name": "NFTRequested",
      "type": "event"
    },
    {
      "anonymous": false,
      "inputs": [
        {
          "indexed": true,
          "internalType": "address",
          "name": "previousOwner",
          "type": "address"
        },
        {
          "indexed": true,
          "internalType": "address",
          "name": "newOwner",
          "type": "address"
        }
      ],
      "name": "OwnershipTransferred",
      "type": "event"
    },
    {
      "anonymous": false,
      "inputs": [
        {
          "indexed": true,
          "internalType": "address",
          "name": "from",
          "type": "address"
        },
        {
          "indexed": true,
          "internalType": "address",
          "name": "to",
          "type": "address"
        },
        {
          "indexed": true,
          "internalType": "uint256",
          "name": "tokenId",
          "type": "uint256"
        }
      ],
      "name": "Transfer",
      "type": "event"
    },
    {
      "inputs": [],
      "name": "MAX_CHANCE_VALUE",
      "outputs": [
        {
          "internalType": "uint256",
          "name": "",
          "type": "uint256"
        }
      ],
      "stateMutability": "view",
      "type": "function"
    },
    {
      "inputs": [
        {
          "internalType": "address",
          "name": "to",
          "type": "address"
        },
        {
          "internalType": "uint256",
          "name": "tokenId",
          "type": "uint256"
        }
      ],
      "name": "approve",
      "outputs": [],
      "stateMutability": "nonpayable",
      "type": "function"
    },
    {
      "inputs": [
        {
          "internalType": "address",
          "name": "owner",
          "type": "address"
        }
      ],
      "name": "balanceOf",
      "outputs": [
        {
          "internalType": "uint256",
          "name": "",
          "type": "uint256"
        }
      ],
      "stateMutability": "view",
      "type": "function"
    },
    {
      "inputs": [
        {
          "internalType": "uint256",
          "name": "tokenId",
          "type": "uint256"
        }
      ],
      "name": "getApproved",
      "outputs": [
        {
          "internalType": "address",
          "name": "",
          "type": "address"
        }
      ],
      "stateMutability": "view",
      "type": "function"
    },
    {
      "inputs": [
        {
          "internalType": "uint256",
          "name": "moddedRng",
          "type": "uint256"
        }
      ],
      "name": "getBreedFromRng",
      "outputs": [
        {
          "internalType": "enum RandomIpfsNft.Breed",
          "name": "",
          "type": "uint8"
        }
      ],
      "stateMutability": "pure",
      "type": "function"
    },
    {
      "inputs": [],
      "name": "getChanceArray",
      "outputs": [
        {
          "internalType": "uint256[3]",
          "name": "",
          "type": "uint256[3]"
        }
      ],
      "stateMutability": "pure",
      "type": "function"
    },
    {
      "inputs": [
        {
          "internalType": "uint256",
          "name": "index",
          "type": "uint256"
        }
      ],
      "name": "getDogTokenUris",
      "outputs": [
        {
          "internalType": "string",
          "name": "",
          "type": "string"
        }
      ],
      "stateMutability": "view",
      "type": "function"
    },
    {
      "inputs": [],
      "name": "getMintFee",
      "outputs": [
        {
          "internalType": "uint256",
          "name": "",
          "type": "uint256"
        }
      ],
      "stateMutability": "view",
      "type": "function"
    },
    {
      "inputs": [],
      "name": "getTokenCounter",
      "outputs": [
        {
          "internalType": "uint256",
          "name": "",
          "type": "uint256"
        }
      ],
      "stateMutability": "view",
      "type": "function"
    },
    {
      "inputs": [
        {
          "internalType": "address",
          "name": "owner",
          "type": "address"
        },
        {
          "internalType": "address",
          "name": "operator",
          "type": "address"
        }
      ],
      "name": "isApprovedForAll",
      "outputs": [
        {
          "internalType": "bool",
          "name": "",
          "type": "bool"
        }
      ],
      "stateMutability": "view",
      "type": "function"
    },
    {
      "inputs": [],
      "name": "name",
      "outputs": [
        {
          "internalType": "string",
          "name": "",
          "type": "string"
        }
      ],
      "stateMutability": "view",
      "type": "function"
    },
    {
      "inputs": [],
      "name": "owner",
      "outputs": [
        {
          "internalType": "address",
          "name": "",
          "type": "address"
        }
      ],
      "stateMutability": "view",
      "type": "function"
    },
    {
      "inputs": [
        {
          "internalType": "uint256",
          "name": "tokenId",
          "type": "uint256"
        }
      ],
      "name": "ownerOf",
      "outputs": [
        {
          "internalType": "address",
          "name": "",
          "type": "address"
        }
      ],
      "stateMutability": "view",
      "type": "function"
    },
    {
      "inputs": [
        {
          "internalType": "uint256",
          "name": "requestId",
          "type": "uint256"
        },
        {
          "internalType": "uint256[]",
          "name": "randomWords",
          "type": "uint256[]"
        }
      ],
      "name": "rawFulfillRandomWords",
      "outputs": [],
      "stateMutability": "nonpayable",
      "type": "function"
    },
    {
      "inputs": [],
      "name": "renounceOwnership",
      "outputs": [],
      "stateMutability": "nonpayable",
      "type": "function"
    },
    {
      "inputs": [],
      "name": "requestNft",
      "outputs": [
        {
          "internalType": "uint256",
          "name": "requestId",
          "type": "uint256"
        }
      ],
      "stateMutability": "payable",
      "type": "function"
    },
    {
      "inputs": [
        {
          "internalType": "address",
          "name": "from",
          "type": "address"
        },
        {
          "internalType": "address",
          "name": "to",
          "type": "address"
        },
        {
          "internalType": "uint256",
          "name": "tokenId",
          "type": "uint256"
        }
      ],
      "name": "safeTransferFrom",
      "outputs": [],
      "stateMutability": "nonpayable",
      "type": "function"
    },
    {
      "inputs": [
        {
          "internalType": "address",
          "name": "from",
          "type": "address"
        },
        {
          "internalType": "address",
          "name": "to",
          "type": "address"
        },
        {
          "internalType": "uint256",
          "name": "tokenId",
          "type": "uint256"
        },
        {
          "internalType": "bytes",
          "name": "data",
          "type": "bytes"
        }
      ],
      "name": "safeTransferFrom",
      "outputs": [],
      "stateMutability": "nonpayable",
      "type": "function"
    },
    {
      "inputs": [
        {
          "internalType": "address",
          "name": "operator",
          "type": "address"
        },
        {
          "internalType": "bool",
          "name": "approved",
          "type": "bool"
        }
      ],
      "name": "setApprovalForAll",
      "outputs": [],
      "stateMutability": "nonpayable",
      "type": "function"
    },
    {
      "inputs": [
        {
          "internalType": "bytes4",
          "name": "interfaceId",
          "type": "bytes4"
        }
      ],
      "name": "supportsInterface",
      "outputs": [
        {
          "internalType": "bool",
          "name": "",
          "type": "bool"
        }
      ],
      "stateMutability": "view",
      "type": "function"
    },
    {
      "inputs": [],
      "name": "symbol",
      "outputs": [
        {
          "internalType": "string",
          "name": "",
          "type": "string"
        }
      ],
      "stateMutability": "view",
      "type": "function"
    },
    {
      "inputs": [
        {
          "internalType": "uint256",
          "name": "tokenId",
          "type": "uint256"
        }
      ],
      "name": "tokenURI",
      "outputs": [
        {
          "internalType": "string",
          "name": "",
          "type": "string"
        }
      ],
      "stateMutability": "view",
      "type": "function"
    },
    {
      "inputs": [
        {
          "internalType": "address",
          "name": "from",
          "type": "address"
        },
        {
          "internalType": "address",
          "name": "to",
          "type": "address"
        },
        {
          "internalType": "uint256",
          "name": "tokenId",
          "type": "uint256"
        }
      ],
      "name": "transferFrom",
      "outputs": [],
      "stateMutability": "nonpayable",
      "type": "function"
    },
    {
      "inputs": [
        {
          "internalType": "address",
          "name": "newOwner",
          "type": "address"
        }
      ],
      "name": "transferOwnership",
      "outputs": [],
      "stateMutability": "nonpayable",
      "type": "function"
    },
    {
      "inputs": [],
      "name": "withdraw",
      "outputs": [],
      "stateMutability": "nonpayable",
      "type": "function"
    }
  ],
  "bytecode": "0x6101206040523480156200001257600080fd5b50604051620042973803806200429783398181016040528101906200003891906200080b565b6040518060400160405280600f81526020017f52616e646f6d2049504653204e465400000000000000000000000000000000008152506040518060400160405280600381526020017f52494e0000000000000000000000000000000000000000000000000000000000815250878073ffffffffffffffffffffffffffffffffffffffff1660808173ffffffffffffffffffffffffffffffffffffffff1681525050508160009080519060200190620000f29291906200029e565b5080600190805190602001906200010b9291906200029e565b5050506200012e62000122620001d060201b60201c565b620001d860201b60201c565b85600860006101000a81548173ffffffffffffffffffffffffffffffffffffffff021916908373ffffffffffffffffffffffffffffffffffffffff1602179055508467ffffffffffffffff1660a08167ffffffffffffffff16815250508360c081815250508263ffffffff1660e08163ffffffff168152505081600b906003620001ba9291906200032f565b508061010081815250505050505050506200092b565b600033905090565b6000600760009054906101000a900473ffffffffffffffffffffffffffffffffffffffff16905081600760006101000a81548173ffffffffffffffffffffffffffffffffffffffff021916908373ffffffffffffffffffffffffffffffffffffffff1602179055508173ffffffffffffffffffffffffffffffffffffffff168173ffffffffffffffffffffffffffffffffffffffff167f8be0079c531659141344cd1fd0a4f28419497f9722a3daafe3b4186f6b6457e060405160405180910390a35050565b828054620002ac90620008f5565b90600052602060002090601f016020900481019282620002d057600085556200031c565b82601f10620002eb57805160ff19168380011785556200031c565b828001600101855582156200031c579182015b828111156200031b578251825591602001919060010190620002fe565b5b5090506200032b919062000396565b5090565b82805482825590600052602060002090810192821562000383579160200282015b8281111562000382578251829080519060200190620003719291906200029e565b509160200191906001019062000350565b5b509050620003929190620003b5565b5090565b5b80821115620003b157600081600090555060010162000397565b5090565b5b80821115620003d95760008181620003cf9190620003dd565b50600101620003b6565b5090565b508054620003eb90620008f5565b6000825580601f10620003ff575062000420565b601f0160209004906000526020600020908101906200041f919062000396565b5b50565b6000604051905090565b600080fd5b600080fd5b600073ffffffffffffffffffffffffffffffffffffffff82169050919050565b6000620004648262000437565b9050919050565b620004768162000457565b81146200048257600080fd5b50565b60008151905062000496816200046b565b92915050565b600067ffffffffffffffff82169050919050565b620004bb816200049c565b8114620004c757600080fd5b50565b600081519050620004db81620004b0565b92915050565b6000819050919050565b620004f681620004e1565b81146200050257600080fd5b50565b6000815190506200051681620004eb565b92915050565b600063ffffffff82169050919050565b62000537816200051c565b81146200054357600080fd5b50565b60008151905062000557816200052c565b92915050565b600080fd5b6000601f19601f8301169050919050565b7f4e487b7100000000000000000000000000000000000000000000000000000000600052604160045260246000fd5b620005ad8262000562565b810181811067ffffffffffffffff82111715620005cf57620005ce62000573565b5b80604052505050565b6000620005e462000423565b9050620005f28282620005a2565b919050565b600067ffffffffffffffff82111562000615576200061462000573565b5b602082029050919050565b600080fd5b600080fd5b600067ffffffffffffffff82111562000648576200064762000573565b5b620006538262000562565b9050602081019050919050565b60005b838110156200068057808201518184015260208101905062000663565b8381111562000690576000848401525b50505050565b6000620006ad620006a7846200062a565b620005d8565b905082815260208101848484011115620006cc57620006cb62000625565b5b620006d984828562000660565b509392505050565b600082601f830112620006f957620006f86200055d565b5b81516200070b84826020860162000696565b91505092915050565b60006200072b6200072584620005f7565b620005d8565b9050806020840283018581111562000748576200074762000620565b5b835b818110156200079657805167ffffffffffffffff8111156200077157620007706200055d565b5b808601620007808982620006e1565b855260208501945050506020810190506200074a565b5050509392505050565b600082601f830112620007b857620007b76200055d565b5b6003620007c784828562000714565b91505092915050565b6000819050919050565b620007e581620007d0565b8114620007f157600080fd5b50565b6000815190506200080581620007da565b92915050565b60008060008060008060c087890312156200082b576200082a6200042d565b5b60006200083b89828a0162000485565b96505060206200084e89828a01620004ca565b95505060406200086189828a0162000505565b94505060606200087489828a0162000546565b935050608087015167ffffffffffffffff81111562000898576200089762000432565b5b620008a689828a01620007a0565b92505060a0620008b989828a01620007f4565b9150509295509295509295565b7f4e487b7100000000000000000000000000000000000000000000000000000000600052602260045260246000fd5b600060028204905060018216806200090e57607f821691505b60208210811415620009255762000924620008c6565b5b50919050565b60805160a05160c05160e051610100516139196200097e60003960008181610d250152610f0101526000610fdd01526000610f9901526000610fba0152600081816108bf015261091301526139196000f3fe6080604052600436106101665760003560e01c806370a08231116100d1578063a70d3a411161008a578063c87b56dd11610064578063c87b56dd1461051d578063da1b9e291461055a578063e985e9c514610585578063f2fde38b146105c257610166565b8063a70d3a4114610499578063aa152491146104d6578063b88d4fde146104f457610166565b806370a082311461039b578063715018a6146103d85780637a5caab3146103ef5780638da5cb5b1461041a57806395d89b4114610445578063a22cb4651461047057610166565b80633af25975116101235780633af259751461028b5780633ccfd60b146102c857806342842e0e146102df5780635dacf5f4146103085780636352211e146103335780636e02007d1461037057610166565b806301ffc9a71461016b57806306fdde03146101a8578063081812fc146101d3578063095ea7b3146102105780631fe543e31461023957806323b872dd14610262575b600080fd5b34801561017757600080fd5b50610192600480360381019061018d919061249e565b6105eb565b60405161019f91906124e6565b60405180910390f35b3480156101b457600080fd5b506101bd6106cd565b6040516101ca919061259a565b60405180910390f35b3480156101df57600080fd5b506101fa60048036038101906101f591906125f2565b61075f565b6040516102079190612660565b60405180910390f35b34801561021c57600080fd5b50610237600480360381019061023291906126a7565b6107a5565b005b34801561024557600080fd5b50610260600480360381019061025b919061282f565b6108bd565b005b34801561026e57600080fd5b506102896004803603810190610284919061288b565b61097d565b005b34801561029757600080fd5b506102b260048036038101906102ad91906125f2565b6109dd565b6040516102bf919061259a565b60405180910390f35b3480156102d457600080fd5b506102dd610a8d565b005b3480156102eb57600080fd5b506103066004803603810190610301919061288b565b610b4e565b005b34801561031457600080fd5b5061031d610b6e565b60405161032a9190612989565b60405180910390f35b34801561033f57600080fd5b5061035a600480360381019061035591906125f2565b610b99565b6040516103679190612660565b60405180910390f35b34801561037c57600080fd5b50610385610c4b565b60405161039291906129b3565b60405180910390f35b3480156103a757600080fd5b506103c260048036038101906103bd91906129ce565b610c55565b6040516103cf91906129b3565b60405180910390f35b3480156103e457600080fd5b506103ed610d0d565b005b3480156103fb57600080fd5b50610404610d21565b60405161041191906129b3565b60405180910390f35b34801561042657600080fd5b5061042f610d49565b60405161043c9190612660565b60405180910390f35b34801561045157600080fd5b5061045a610d73565b604051610467919061259a565b60405180910390f35b34801561047c57600080fd5b5061049760048036038101906104929190612a27565b610e05565b005b3480156104a557600080fd5b506104c060048036038101906104bb91906125f2565b610e1b565b6040516104cd9190612ade565b60405180910390f35b6104de610efd565b6040516104eb91906129b3565b60405180910390f35b34801561050057600080fd5b5061051b60048036038101906105169190612bae565b611100565b005b34801561052957600080fd5b50610544600480360381019061053f91906125f2565b611162565b604051610551919061259a565b60405180910390f35b34801561056657600080fd5b5061056f611275565b60405161057c91906129b3565b60405180910390f35b34801561059157600080fd5b506105ac60048036038101906105a79190612c31565b61127a565b6040516105b991906124e6565b60405180910390f35b3480156105ce57600080fd5b506105e960048036038101906105e491906129ce565b61130e565b005b60007f80ac58cd000000000000000000000000000000000000000000000000000000007bffffffffffffffffffffffffffffffffffffffffffffffffffffffff1916827bffffffffffffffffffffffffffffffffffffffffffffffffffffffff191614806106b657507f5b5e139f000000000000000000000000000000000000000000000000000000007bffffffffffffffffffffffffffffffffffffffffffffffffffffffff1916827bffffffffffffffffffffffffffffffffffffffffffffffffffffffff1916145b806106c657506106c582611392565b5b9050919050565b6060600080546106dc90612ca0565b80601f016020809104026020016040519081016040528092919081815260200182805461070890612ca0565b80156107555780601f1061072a57610100808354040283529160200191610755565b820191906000526020600020905b81548152906001019060200180831161073857829003601f168201915b5050505050905090565b600061076a826113fc565b6004600083815260200190815260200160002060009054906101000a900473ffffffffffffffffffffffffffffffffffffffff169050919050565b60006107b082610b99565b90508073ffffffffffffffffffffffffffffffffffffffff168373ffffffffffffffffffffffffffffffffffffffff161415610821576040517f08c379a000000000000000000000000000000000000000000000000000000000815260040161081890612d44565b60405180910390fd5b8073ffffffffffffffffffffffffffffffffffffffff16610840611447565b73ffffffffffffffffffffffffffffffffffffffff16148061086f575061086e81610869611447565b61127a565b5b6108ae576040517f08c379a00000000000000000000000000000000000000000000000000000000081526004016108a590612dd6565b60405180910390fd5b6108b8838361144f565b505050565b7f000000000000000000000000000000000000000000000000000000000000000073ffffffffffffffffffffffffffffffffffffffff163373ffffffffffffffffffffffffffffffffffffffff161461096f57337f00000000000000000000000000000000000000000000000000000000000000006040517f1cf993f4000000000000000000000000000000000000000000000000000000008152600401610966929190612df6565b60405180910390fd5b6109798282611508565b5050565b61098e610988611447565b8261168d565b6109cd576040517f08c379a00000000000000000000000000000000000000000000000000000000081526004016109c490612e91565b60405180910390fd5b6109d8838383611722565b505050565b6060600b82815481106109f3576109f2612eb1565b5b906000526020600020018054610a0890612ca0565b80601f0160208091040260200160405190810160405280929190818152602001828054610a3490612ca0565b8015610a815780601f10610a5657610100808354040283529160200191610a81565b820191906000526020600020905b815481529060010190602001808311610a6457829003601f168201915b50505050509050919050565b610a95611989565b60004790506000610aa4610d49565b905060008173ffffffffffffffffffffffffffffffffffffffff1683604051610acc90612f11565b60006040518083038185875af1925050503d8060008114610b09576040519150601f19603f3d011682016040523d82523d6000602084013e610b0e565b606091505b5050905080610b49576040517f3dfc4c8e00000000000000000000000000000000000000000000000000000000815260040160405180910390fd5b505050565b610b6983838360405180602001604052806000815250611100565b505050565b610b7661236d565b6040518060600160405280600a8152602001601e81526020016064815250905090565b6000806002600084815260200190815260200160002060009054906101000a900473ffffffffffffffffffffffffffffffffffffffff169050600073ffffffffffffffffffffffffffffffffffffffff168173ffffffffffffffffffffffffffffffffffffffff161415610c42576040517f08c379a0000000000000000000000000000000000000000000000000000000008152600401610c3990612f72565b60405180910390fd5b80915050919050565b6000600a54905090565b60008073ffffffffffffffffffffffffffffffffffffffff168273ffffffffffffffffffffffffffffffffffffffff161415610cc6576040517f08c379a0000000000000000000000000000000000000000000000000000000008152600401610cbd90613004565b60405180910390fd5b600360008373ffffffffffffffffffffffffffffffffffffffff1673ffffffffffffffffffffffffffffffffffffffff168152602001908152602001600020549050919050565b610d15611989565b610d1f6000611a07565b565b60007f0000000000000000000000000000000000000000000000000000000000000000905090565b6000600760009054906101000a900473ffffffffffffffffffffffffffffffffffffffff16905090565b606060018054610d8290612ca0565b80601f0160208091040260200160405190810160405280929190818152602001828054610dae90612ca0565b8015610dfb5780601f10610dd057610100808354040283529160200191610dfb565b820191906000526020600020905b815481529060010190602001808311610dde57829003601f168201915b5050505050905090565b610e17610e10611447565b8383611acd565b5050565b600080600090506000610e2c610b6e565b905060005b6003811015610ec557828510158015610e6b5750818160038110610e5857610e57612eb1565b5b602002015183610e689190613053565b85105b15610e8d57806002811115610e8357610e82612a67565b5b9350505050610ef8565b818160038110610ea057610e9f612eb1565b5b602002015183610eb09190613053565b92508080610ebd906130a9565b915050610e31565b506040517f12806c9d00000000000000000000000000000000000000000000000000000000815260040160405180910390fd5b919050565b60007f0000000000000000000000000000000000000000000000000000000000000000341015610f59576040517fb90f491000000000000000000000000000000000000000000000000000000000815260040160405180910390fd5b600860009054906101000a900473ffffffffffffffffffffffffffffffffffffffff1673ffffffffffffffffffffffffffffffffffffffff16635d3b1d307f00000000000000000000000000000000000000000000000000000000000000007f000000000000000000000000000000000000000000000000000000000000000060037f000000000000000000000000000000000000000000000000000000000000000060016040518663ffffffff1660e01b815260040161101e95949392919061316a565b602060405180830381600087803b15801561103857600080fd5b505af115801561104c573d6000803e3d6000fd5b505050506040513d601f19601f8201168201806040525081019061107091906131d2565b9050336009600083815260200190815260200160002060006101000a81548173ffffffffffffffffffffffffffffffffffffffff021916908373ffffffffffffffffffffffffffffffffffffffff1602179055507f4e1c2f1eae56e29ec039a2b882eec626e6c420ed5a5b93a203c8b8b695e911b181336040516110f59291906131ff565b60405180910390a190565b61111161110b611447565b8361168d565b611150576040517f08c379a000000000000000000000000000000000000000000000000000000000815260040161114790612e91565b60405180910390fd5b61115c84848484611c3a565b50505050565b606061116d826113fc565b600060066000848152602001908152602001600020805461118d90612ca0565b80601f01602080910402602001604051908101604052809291908181526020018280546111b990612ca0565b80156112065780601f106111db57610100808354040283529160200191611206565b820191906000526020600020905b8154815290600101906020018083116111e957829003601f168201915b505050505090506000611217611c96565b905060008151141561122d578192505050611270565b60008251111561126257808260405160200161124a929190613264565b60405160208183030381529060405292505050611270565b61126b84611cad565b925050505b919050565b606481565b6000600560008473ffffffffffffffffffffffffffffffffffffffff1673ffffffffffffffffffffffffffffffffffffffff16815260200190815260200160002060008373ffffffffffffffffffffffffffffffffffffffff1673ffffffffffffffffffffffffffffffffffffffff16815260200190815260200160002060009054906101000a900460ff16905092915050565b611316611989565b600073ffffffffffffffffffffffffffffffffffffffff168173ffffffffffffffffffffffffffffffffffffffff161415611386576040517f08c379a000000000000000000000000000000000000000000000000000000000815260040161137d906132fa565b60405180910390fd5b61138f81611a07565b50565b60007f01ffc9a7000000000000000000000000000000000000000000000000000000007bffffffffffffffffffffffffffffffffffffffffffffffffffffffff1916827bffffffffffffffffffffffffffffffffffffffffffffffffffffffff1916149050919050565b61140581611d15565b611444576040517f08c379a000000000000000000000000000000000000000000000000000000000815260040161143b90612f72565b60405180910390fd5b50565b600033905090565b816004600083815260200190815260200160002060006101000a81548173ffffffffffffffffffffffffffffffffffffffff021916908373ffffffffffffffffffffffffffffffffffffffff160217905550808273ffffffffffffffffffffffffffffffffffffffff166114c283610b99565b73ffffffffffffffffffffffffffffffffffffffff167f8c5be1e5ebec7d5bd14f71427d1e84f3dd0314c0f7b2291e5b200ac8c7c3b92560405160405180910390a45050565b60006009600084815260200190815260200160002060009054906101000a900473ffffffffffffffffffffffffffffffffffffffff1690506000600a549050600060648460008151811061155f5761155e612eb1565b5b60200260200101516115719190613349565b9050600061157e82610e1b565b905061158a8484611d81565b61164c83600b8360028111156115a3576115a2612a67565b5b815481106115b4576115b3612eb1565b5b9060005260206000200180546115c990612ca0565b80601f01602080910402602001604051908101604052809291908181526020018280546115f590612ca0565b80156116425780601f1061161757610100808354040283529160200191611642565b820191906000526020600020905b81548152906001019060200180831161162557829003601f168201915b5050505050611d9f565b7fab79897476febbd649710b1bd1dc3e93a316d3dee65f65b022ab89a4b7e206b5818560405161167d92919061337a565b60405180910390a1505050505050565b60008061169983610b99565b90508073ffffffffffffffffffffffffffffffffffffffff168473ffffffffffffffffffffffffffffffffffffffff1614806116db57506116da818561127a565b5b8061171957508373ffffffffffffffffffffffffffffffffffffffff166117018461075f565b73ffffffffffffffffffffffffffffffffffffffff16145b91505092915050565b8273ffffffffffffffffffffffffffffffffffffffff1661174282610b99565b73ffffffffffffffffffffffffffffffffffffffff1614611798576040517f08c379a000000000000000000000000000000000000000000000000000000000815260040161178f90613415565b60405180910390fd5b600073ffffffffffffffffffffffffffffffffffffffff168273ffffffffffffffffffffffffffffffffffffffff161415611808576040517f08c379a00000000000000000000000000000000000000000000000000000000081526004016117ff906134a7565b60405180910390fd5b611813838383611e13565b61181e60008261144f565b6001600360008573ffffffffffffffffffffffffffffffffffffffff1673ffffffffffffffffffffffffffffffffffffffff168152602001908152602001600020600082825461186e91906134c7565b925050819055506001600360008473ffffffffffffffffffffffffffffffffffffffff1673ffffffffffffffffffffffffffffffffffffffff16815260200190815260200160002060008282546118c59190613053565b92505081905550816002600083815260200190815260200160002060006101000a81548173ffffffffffffffffffffffffffffffffffffffff021916908373ffffffffffffffffffffffffffffffffffffffff160217905550808273ffffffffffffffffffffffffffffffffffffffff168473ffffffffffffffffffffffffffffffffffffffff167fddf252ad1be2c89b69c2b068fc378daa952ba7f163c4a11628f55a4df523b3ef60405160405180910390a4611984838383611e18565b505050565b611991611447565b73ffffffffffffffffffffffffffffffffffffffff166119af610d49565b73ffffffffffffffffffffffffffffffffffffffff1614611a05576040517f08c379a00000000000000000000000000000000000000000000000000000000081526004016119fc90613547565b60405180910390fd5b565b6000600760009054906101000a900473ffffffffffffffffffffffffffffffffffffffff16905081600760006101000a81548173ffffffffffffffffffffffffffffffffffffffff021916908373ffffffffffffffffffffffffffffffffffffffff1602179055508173ffffffffffffffffffffffffffffffffffffffff168173ffffffffffffffffffffffffffffffffffffffff167f8be0079c531659141344cd1fd0a4f28419497f9722a3daafe3b4186f6b6457e060405160405180910390a35050565b8173ffffffffffffffffffffffffffffffffffffffff168373ffffffffffffffffffffffffffffffffffffffff161415611b3c576040517f08c379a0000000000000000000000000000000000000000000000000000000008152600401611b33906135b3565b60405180910390fd5b80600560008573ffffffffffffffffffffffffffffffffffffffff1673ffffffffffffffffffffffffffffffffffffffff16815260200190815260200160002060008473ffffffffffffffffffffffffffffffffffffffff1673ffffffffffffffffffffffffffffffffffffffff16815260200190815260200160002060006101000a81548160ff0219169083151502179055508173ffffffffffffffffffffffffffffffffffffffff168373ffffffffffffffffffffffffffffffffffffffff167f17307eab39ab6107e8899845ad3d59bd9653f200f220920489ca2b5937696c3183604051611c2d91906124e6565b60405180910390a3505050565b611c45848484611722565b611c5184848484611e1d565b611c90576040517f08c379a0000000000000000000000000000000000000000000000000000000008152600401611c8790613645565b60405180910390fd5b50505050565b606060405180602001604052806000815250905090565b6060611cb8826113fc565b6000611cc2611c96565b90506000815111611ce25760405180602001604052806000815250611d0d565b80611cec84611fb4565b604051602001611cfd929190613264565b6040516020818303038152906040525b915050919050565b60008073ffffffffffffffffffffffffffffffffffffffff166002600084815260200190815260200160002060009054906101000a900473ffffffffffffffffffffffffffffffffffffffff1673ffffffffffffffffffffffffffffffffffffffff1614159050919050565b611d9b828260405180602001604052806000815250612115565b5050565b611da882611d15565b611de7576040517f08c379a0000000000000000000000000000000000000000000000000000000008152600401611dde906136d7565b60405180910390fd5b80600660008481526020019081526020016000209080519060200190611e0e92919061238f565b505050565b505050565b505050565b6000611e3e8473ffffffffffffffffffffffffffffffffffffffff16612170565b15611fa7578373ffffffffffffffffffffffffffffffffffffffff1663150b7a02611e67611447565b8786866040518563ffffffff1660e01b8152600401611e89949392919061374c565b602060405180830381600087803b158015611ea357600080fd5b505af1925050508015611ed457506040513d601f19601f82011682018060405250810190611ed191906137ad565b60015b611f57573d8060008114611f04576040519150601f19603f3d011682016040523d82523d6000602084013e611f09565b606091505b50600081511415611f4f576040517f08c379a0000000000000000000000000000000000000000000000000000000008152600401611f4690613645565b60405180910390fd5b805181602001fd5b63150b7a0260e01b7bffffffffffffffffffffffffffffffffffffffffffffffffffffffff1916817bffffffffffffffffffffffffffffffffffffffffffffffffffffffff191614915050611fac565b600190505b949350505050565b60606000821415611ffc576040518060400160405280600181526020017f30000000000000000000000000000000000000000000000000000000000000008152509050612110565b600082905060005b6000821461202e578080612017906130a9565b915050600a8261202791906137da565b9150612004565b60008167ffffffffffffffff81111561204a576120496126ec565b5b6040519080825280601f01601f19166020018201604052801561207c5781602001600182028036833780820191505090505b5090505b600085146121095760018261209591906134c7565b9150600a856120a49190613349565b60306120b09190613053565b60f81b8183815181106120c6576120c5612eb1565b5b60200101907effffffffffffffffffffffffffffffffffffffffffffffffffffffffffffff1916908160001a905350600a8561210291906137da565b9450612080565b8093505050505b919050565b61211f8383612193565b61212c6000848484611e1d565b61216b576040517f08c379a000000000000000000000000000000000000000000000000000000000815260040161216290613645565b60405180910390fd5b505050565b6000808273ffffffffffffffffffffffffffffffffffffffff163b119050919050565b600073ffffffffffffffffffffffffffffffffffffffff168273ffffffffffffffffffffffffffffffffffffffff161415612203576040517f08c379a00000000000000000000000000000000000000000000000000000000081526004016121fa90613857565b60405180910390fd5b61220c81611d15565b1561224c576040517f08c379a0000000000000000000000000000000000000000000000000000000008152600401612243906138c3565b60405180910390fd5b61225860008383611e13565b6001600360008473ffffffffffffffffffffffffffffffffffffffff1673ffffffffffffffffffffffffffffffffffffffff16815260200190815260200160002060008282546122a89190613053565b92505081905550816002600083815260200190815260200160002060006101000a81548173ffffffffffffffffffffffffffffffffffffffff021916908373ffffffffffffffffffffffffffffffffffffffff160217905550808273ffffffffffffffffffffffffffffffffffffffff16600073ffffffffffffffffffffffffffffffffffffffff167fddf252ad1be2c89b69c2b068fc378daa952ba7f163c4a11628f55a4df523b3ef60405160405180910390a461236960008383611e18565b5050565b6040518060600160405280600390602082028036833780820191505090505090565b82805461239b90612ca0565b90600052602060002090601f0160209004810192826123bd5760008555612404565b82601f106123d657805160ff1916838001178555612404565b82800160010185558215612404579182015b828111156124035782518255916020019190600101906123e8565b5b5090506124119190612415565b5090565b5b8082111561242e576000816000905550600101612416565b5090565b6000604051905090565b600080fd5b600080fd5b60007fffffffff0000000000000000000000000000000000000000000000000000000082169050919050565b61247b81612446565b811461248657600080fd5b50565b60008135905061249881612472565b92915050565b6000602082840312156124b4576124b361243c565b5b60006124c284828501612489565b91505092915050565b60008115159050919050565b6124e0816124cb565b82525050565b60006020820190506124fb60008301846124d7565b92915050565b600081519050919050565b600082825260208201905092915050565b60005b8381101561253b578082015181840152602081019050612520565b8381111561254a576000848401525b50505050565b6000601f19601f8301169050919050565b600061256c82612501565b612576818561250c565b935061258681856020860161251d565b61258f81612550565b840191505092915050565b600060208201905081810360008301526125b48184612561565b905092915050565b6000819050919050565b6125cf816125bc565b81146125da57600080fd5b50565b6000813590506125ec816125c6565b92915050565b6000602082840312156126085761260761243c565b5b6000612616848285016125dd565b91505092915050565b600073ffffffffffffffffffffffffffffffffffffffff82169050919050565b600061264a8261261f565b9050919050565b61265a8161263f565b82525050565b60006020820190506126756000830184612651565b92915050565b6126848161263f565b811461268f57600080fd5b50565b6000813590506126a18161267b565b92915050565b600080604083850312156126be576126bd61243c565b5b60006126cc85828601612692565b92505060206126dd858286016125dd565b9150509250929050565b600080fd5b7f4e487b7100000000000000000000000000000000000000000000000000000000600052604160045260246000fd5b61272482612550565b810181811067ffffffffffffffff82111715612743576127426126ec565b5b80604052505050565b6000612756612432565b9050612762828261271b565b919050565b600067ffffffffffffffff821115612782576127816126ec565b5b602082029050602081019050919050565b600080fd5b60006127ab6127a684612767565b61274c565b905080838252602082019050602084028301858111156127ce576127cd612793565b5b835b818110156127f757806127e388826125dd565b8452602084019350506020810190506127d0565b5050509392505050565b600082601f830112612816576128156126e7565b5b8135612826848260208601612798565b91505092915050565b600080604083850312156128465761284561243c565b5b6000612854858286016125dd565b925050602083013567ffffffffffffffff81111561287557612874612441565b5b61288185828601612801565b9150509250929050565b6000806000606084860312156128a4576128a361243c565b5b60006128b286828701612692565b93505060206128c386828701612692565b92505060406128d4868287016125dd565b9150509250925092565b600060039050919050565b600081905092915050565b6000819050919050565b612907816125bc565b82525050565b600061291983836128fe565b60208301905092915050565b6000602082019050919050565b61293b816128de565b61294581846128e9565b9250612950826128f4565b8060005b83811015612981578151612968878261290d565b965061297383612925565b925050600181019050612954565b505050505050565b600060608201905061299e6000830184612932565b92915050565b6129ad816125bc565b82525050565b60006020820190506129c860008301846129a4565b92915050565b6000602082840312156129e4576129e361243c565b5b60006129f284828501612692565b91505092915050565b612a04816124cb565b8114612a0f57600080fd5b50565b600081359050612a21816129fb565b92915050565b60008060408385031215612a3e57612a3d61243c565b5b6000612a4c85828601612692565b9250506020612a5d85828601612a12565b9150509250929050565b7f4e487b7100000000000000000000000000000000000000000000000000000000600052602160045260246000fd5b60038110612aa757612aa6612a67565b5b50565b6000819050612ab882612a96565b919050565b6000612ac882612aaa565b9050919050565b612ad881612abd565b82525050565b6000602082019050612af36000830184612acf565b92915050565b600080fd5b600067ffffffffffffffff821115612b1957612b186126ec565b5b612b2282612550565b9050602081019050919050565b82818337600083830152505050565b6000612b51612b4c84612afe565b61274c565b905082815260208101848484011115612b6d57612b6c612af9565b5b612b78848285612b2f565b509392505050565b600082601f830112612b9557612b946126e7565b5b8135612ba5848260208601612b3e565b91505092915050565b60008060008060808587031215612bc857612bc761243c565b5b6000612bd687828801612692565b9450506020612be787828801612692565b9350506040612bf8878288016125dd565b925050606085013567ffffffffffffffff811115612c1957612c18612441565b5b612c2587828801612b80565b91505092959194509250565b60008060408385031215612c4857612c4761243c565b5b6000612c5685828601612692565b9250506020612c6785828601612692565b9150509250929050565b7f4e487b7100000000000000000000000000000000000000000000000000000000600052602260045260246000fd5b60006002820490506001821680612cb857607f821691505b60208210811415612ccc57612ccb612c71565b5b50919050565b7f4552433732313a20617070726f76616c20746f2063757272656e74206f776e6560008201527f7200000000000000000000000000000000000000000000000000000000000000602082015250565b6000612d2e60218361250c565b9150612d3982612cd2565b604082019050919050565b60006020820190508181036000830152612d5d81612d21565b9050919050565b7f4552433732313a20617070726f76652063616c6c6572206973206e6f7420746f60008201527f6b656e206f776e6572206e6f7220617070726f76656420666f7220616c6c0000602082015250565b6000612dc0603e8361250c565b9150612dcb82612d64565b604082019050919050565b60006020820190508181036000830152612def81612db3565b9050919050565b6000604082019050612e0b6000830185612651565b612e186020830184612651565b9392505050565b7f4552433732313a2063616c6c6572206973206e6f7420746f6b656e206f776e6560008201527f72206e6f7220617070726f766564000000000000000000000000000000000000602082015250565b6000612e7b602e8361250c565b9150612e8682612e1f565b604082019050919050565b60006020820190508181036000830152612eaa81612e6e565b9050919050565b7f4e487b7100000000000000000000000000000000000000000000000000000000600052603260045260246000fd5b600081905092915050565b50565b6000612efb600083612ee0565b9150612f0682612eeb565b600082019050919050565b6000612f1c82612eee565b9150819050919050565b7f4552433732313a20696e76616c696420746f6b656e2049440000000000000000600082015250565b6000612f5c60188361250c565b9150612f6782612f26565b602082019050919050565b60006020820190508181036000830152612f8b81612f4f565b9050919050565b7f4552433732313a2061646472657373207a65726f206973206e6f74206120766160008201527f6c6964206f776e65720000000000000000000000000000000000000000000000602082015250565b6000612fee60298361250c565b9150612ff982612f92565b604082019050919050565b6000602082019050818103600083015261301d81612fe1565b9050919050565b7f4e487b7100000000000000000000000000000000000000000000000000000000600052601160045260246000fd5b600061305e826125bc565b9150613069836125bc565b9250827fffffffffffffffffffffffffffffffffffffffffffffffffffffffffffffffff0382111561309e5761309d613024565b5b828201905092915050565b60006130b4826125bc565b91507fffffffffffffffffffffffffffffffffffffffffffffffffffffffffffffffff8214156130e7576130e6613024565b5b600182019050919050565b6000819050919050565b613105816130f2565b82525050565b600067ffffffffffffffff82169050919050565b6131288161310b565b82525050565b600061ffff82169050919050565b6131458161312e565b82525050565b600063ffffffff82169050919050565b6131648161314b565b82525050565b600060a08201905061317f60008301886130fc565b61318c602083018761311f565b613199604083018661313c565b6131a6606083018561315b565b6131b3608083018461315b565b9695505050505050565b6000815190506131cc816125c6565b92915050565b6000602082840312156131e8576131e761243c565b5b60006131f6848285016131bd565b91505092915050565b600060408201905061321460008301856129a4565b6132216020830184612651565b9392505050565b600081905092915050565b600061323e82612501565b6132488185613228565b935061325881856020860161251d565b80840191505092915050565b60006132708285613233565b915061327c8284613233565b91508190509392505050565b7f4f776e61626c653a206e6577206f776e657220697320746865207a65726f206160008201527f6464726573730000000000000000000000000000000000000000000000000000602082015250565b60006132e460268361250c565b91506132ef82613288565b604082019050919050565b60006020820190508181036000830152613313816132d7565b9050919050565b7f4e487b7100000000000000000000000000000000000000000000000000000000600052601260045260246000fd5b6000613354826125bc565b915061335f836125bc565b92508261336f5761336e61331a565b5b828206905092915050565b600060408201905061338f6000830185612acf565b61339c6020830184612651565b9392505050565b7f4552433732313a207472616e736665722066726f6d20696e636f72726563742060008201527f6f776e6572000000000000000000000000000000000000000000000000000000602082015250565b60006133ff60258361250c565b915061340a826133a3565b604082019050919050565b6000602082019050818103600083015261342e816133f2565b9050919050565b7f4552433732313a207472616e7366657220746f20746865207a65726f2061646460008201527f7265737300000000000000000000000000000000000000000000000000000000602082015250565b600061349160248361250c565b915061349c82613435565b604082019050919050565b600060208201905081810360008301526134c081613484565b9050919050565b60006134d2826125bc565b91506134dd836125bc565b9250828210156134f0576134ef613024565b5b828203905092915050565b7f4f776e61626c653a2063616c6c6572206973206e6f7420746865206f776e6572600082015250565b600061353160208361250c565b915061353c826134fb565b602082019050919050565b6000602082019050818103600083015261356081613524565b9050919050565b7f4552433732313a20617070726f766520746f2063616c6c657200000000000000600082015250565b600061359d60198361250c565b91506135a882613567565b602082019050919050565b600060208201905081810360008301526135cc81613590565b9050919050565b7f4552433732313a207472616e7366657220746f206e6f6e20455243373231526560008201527f63656976657220696d706c656d656e7465720000000000000000000000000000602082015250565b600061362f60328361250c565b915061363a826135d3565b604082019050919050565b6000602082019050818103600083015261365e81613622565b9050919050565b7f45524337323155524953746f726167653a2055524920736574206f66206e6f6e60008201527f6578697374656e7420746f6b656e000000000000000000000000000000000000602082015250565b60006136c1602e8361250c565b91506136cc82613665565b604082019050919050565b600060208201905081810360008301526136f0816136b4565b9050919050565b600081519050919050565b600082825260208201905092915050565b600061371e826136f7565b6137288185613702565b935061373881856020860161251d565b61374181612550565b840191505092915050565b60006080820190506137616000830187612651565b61376e6020830186612651565b61377b60408301856129a4565b818103606083015261378d8184613713565b905095945050505050565b6000815190506137a781612472565b92915050565b6000602082840312156137c3576137c261243c565b5b60006137d184828501613798565b91505092915050565b60006137e5826125bc565b91506137f0836125bc565b925082613800576137ff61331a565b5b828204905092915050565b7f4552433732313a206d696e7420746f20746865207a65726f2061646472657373600082015250565b600061384160208361250c565b915061384c8261380b565b602082019050919050565b6000602082019050818103600083015261387081613834565b9050919050565b7f4552433732313a20746f6b656e20616c7265616479206d696e74656400000000600082015250565b60006138ad601c8361250c565b91506138b882613877565b602082019050919050565b600060208201905081810360008301526138dc816138a0565b905091905056fea26469706673582212207d1747b5b2f59089cf61d53b5a8abf114b73a9dc505e902e421292b5f42531f964736f6c63430008090033",
  "linkReferences": {},
  "deployedLinkReferences": {}
}