{
  "address": "0xa311c5c6b43e0726d582d188c2035e4e1a80a2e3",
  "abi": [
    {
      "inputs": [
        {
          "internalType": "address",
          "name": "vrfCoordinatorV2",
          "type": "address"
        },
        {
          "internalType": "uint64",
          "name": "subscriptionId",
          "type": "uint64"
        },
        {
          "internalType": "bytes32",
          "name": "gasLane",
          "type": "bytes32"
        },
        {
          "internalType": "uint32",
          "name": "callbackGasLimit",
          "type": "uint32"
        },
        {
          "internalType": "string[3]",
          "name": "dogTokenUris",
          "type": "string[3]"
        },
        {
          "internalType": "uint256",
          "name": "mintFee",
          "type": "uint256"
        }
      ],
      "stateMutability": "nonpayable",
      "type": "constructor"
    },
    {
      "inputs": [
        {
          "internalType": "address",
          "name": "have",
          "type": "address"
        },
        {
          "internalType": "address",
          "name": "want",
          "type": "address"
        }
      ],
      "name": "OnlyCoordinatorCanFulfill",
      "type": "error"
    },
    {
      "inputs": [],
      "name": "RandomIpfsNft__NeedMoreETHSent",
      "type": "error"
    },
    {
      "inputs": [],
      "name": "RandomIpfsNft__RangeOutOfBounds",
      "type": "error"
    },
    {
      "inputs": [],
      "name": "RandomIpfsNft__WithdrawTransactionFailed",
      "type": "error"
    },
    {
      "anonymous": false,
      "inputs": [
        {
          "indexed": true,
          "internalType": "address",
          "name": "owner",
          "type": "address"
        },
        {
          "indexed": true,
          "internalType": "address",
          "name": "approved",
          "type": "address"
        },
        {
          "indexed": true,
          "internalType": "uint256",
          "name": "tokenId",
          "type": "uint256"
        }
      ],
      "name": "Approval",
      "type": "event"
    },
    {
      "anonymous": false,
      "inputs": [
        {
          "indexed": true,
          "internalType": "address",
          "name": "owner",
          "type": "address"
        },
        {
          "indexed": true,
          "internalType": "address",
          "name": "operator",
          "type": "address"
        },
        {
          "indexed": false,
          "internalType": "bool",
          "name": "approved",
          "type": "bool"
        }
      ],
      "name": "ApprovalForAll",
      "type": "event"
    },
    {
      "anonymous": false,
      "inputs": [
        {
          "indexed": false,
          "internalType": "enum RandomIpfsNft.Breed",
          "name": "dogBreed",
          "type": "uint8"
        },
        {
          "indexed": false,
          "internalType": "address",
          "name": "minter",
          "type": "address"
        }
      ],
      "name": "NFTMinted",
      "type": "event"
    },
    {
      "anonymous": false,
      "inputs": [
        {
          "indexed": false,
          "internalType": "uint256",
          "name": "requestId",
          "type": "uint256"
        },
        {
          "indexed": false,
          "internalType": "address",
          "name": "requestor",
          "type": "address"
        }
      ],
      "name": "NFTRequested",
      "type": "event"
    },
    {
      "anonymous": false,
      "inputs": [
        {
          "indexed": true,
          "internalType": "address",
          "name": "previousOwner",
          "type": "address"
        },
        {
          "indexed": true,
          "internalType": "address",
          "name": "newOwner",
          "type": "address"
        }
      ],
      "name": "OwnershipTransferred",
      "type": "event"
    },
    {
      "anonymous": false,
      "inputs": [
        {
          "indexed": true,
          "internalType": "address",
          "name": "from",
          "type": "address"
        },
        {
          "indexed": true,
          "internalType": "address",
          "name": "to",
          "type": "address"
        },
        {
          "indexed": true,
          "internalType": "uint256",
          "name": "tokenId",
          "type": "uint256"
        }
      ],
      "name": "Transfer",
      "type": "event"
    },
    {
      "inputs": [],
      "name": "MAX_CHANCE_VALUE",
      "outputs": [
        {
          "internalType": "uint256",
          "name": "",
          "type": "uint256"
        }
      ],
      "stateMutability": "view",
      "type": "function"
    },
    {
      "inputs": [
        {
          "internalType": "address",
          "name": "to",
          "type": "address"
        },
        {
          "internalType": "uint256",
          "name": "tokenId",
          "type": "uint256"
        }
      ],
      "name": "approve",
      "outputs": [],
      "stateMutability": "nonpayable",
      "type": "function"
    },
    {
      "inputs": [
        {
          "internalType": "address",
          "name": "owner",
          "type": "address"
        }
      ],
      "name": "balanceOf",
      "outputs": [
        {
          "internalType": "uint256",
          "name": "",
          "type": "uint256"
        }
      ],
      "stateMutability": "view",
      "type": "function"
    },
    {
      "inputs": [
        {
          "internalType": "uint256",
          "name": "tokenId",
          "type": "uint256"
        }
      ],
      "name": "getApproved",
      "outputs": [
        {
          "internalType": "address",
          "name": "",
          "type": "address"
        }
      ],
      "stateMutability": "view",
      "type": "function"
    },
    {
      "inputs": [
        {
          "internalType": "uint256",
          "name": "moddedRng",
          "type": "uint256"
        }
      ],
      "name": "getBreedFromRng",
      "outputs": [
        {
          "internalType": "enum RandomIpfsNft.Breed",
          "name": "",
          "type": "uint8"
        }
      ],
      "stateMutability": "pure",
      "type": "function"
    },
    {
      "inputs": [],
      "name": "getChanceArray",
      "outputs": [
        {
          "internalType": "uint256[3]",
          "name": "",
          "type": "uint256[3]"
        }
      ],
      "stateMutability": "pure",
      "type": "function"
    },
    {
      "inputs": [
        {
          "internalType": "uint256",
          "name": "index",
          "type": "uint256"
        }
      ],
      "name": "getDogTokenUris",
      "outputs": [
        {
          "internalType": "string",
          "name": "",
          "type": "string"
        }
      ],
      "stateMutability": "view",
      "type": "function"
    },
    {
      "inputs": [],
      "name": "getMintFee",
      "outputs": [
        {
          "internalType": "uint256",
          "name": "",
          "type": "uint256"
        }
      ],
      "stateMutability": "view",
      "type": "function"
    },
    {
      "inputs": [],
      "name": "getTokenCounter",
      "outputs": [
        {
          "internalType": "uint256",
          "name": "",
          "type": "uint256"
        }
      ],
      "stateMutability": "view",
      "type": "function"
    },
    {
      "inputs": [
        {
          "internalType": "address",
          "name": "owner",
          "type": "address"
        },
        {
          "internalType": "address",
          "name": "operator",
          "type": "address"
        }
      ],
      "name": "isApprovedForAll",
      "outputs": [
        {
          "internalType": "bool",
          "name": "",
          "type": "bool"
        }
      ],
      "stateMutability": "view",
      "type": "function"
    },
    {
      "inputs": [],
      "name": "name",
      "outputs": [
        {
          "internalType": "string",
          "name": "",
          "type": "string"
        }
      ],
      "stateMutability": "view",
      "type": "function"
    },
    {
      "inputs": [],
      "name": "owner",
      "outputs": [
        {
          "internalType": "address",
          "name": "",
          "type": "address"
        }
      ],
      "stateMutability": "view",
      "type": "function"
    },
    {
      "inputs": [
        {
          "internalType": "uint256",
          "name": "tokenId",
          "type": "uint256"
        }
      ],
      "name": "ownerOf",
      "outputs": [
        {
          "internalType": "address",
          "name": "",
          "type": "address"
        }
      ],
      "stateMutability": "view",
      "type": "function"
    },
    {
      "inputs": [
        {
          "internalType": "uint256",
          "name": "requestId",
          "type": "uint256"
        },
        {
          "internalType": "uint256[]",
          "name": "randomWords",
          "type": "uint256[]"
        }
      ],
      "name": "rawFulfillRandomWords",
      "outputs": [],
      "stateMutability": "nonpayable",
      "type": "function"
    },
    {
      "inputs": [],
      "name": "renounceOwnership",
      "outputs": [],
      "stateMutability": "nonpayable",
      "type": "function"
    },
    {
      "inputs": [],
      "name": "requestNft",
      "outputs": [
        {
          "internalType": "uint256",
          "name": "requestId",
          "type": "uint256"
        }
      ],
      "stateMutability": "payable",
      "type": "function"
    },
    {
      "inputs": [
        {
          "internalType": "address",
          "name": "from",
          "type": "address"
        },
        {
          "internalType": "address",
          "name": "to",
          "type": "address"
        },
        {
          "internalType": "uint256",
          "name": "tokenId",
          "type": "uint256"
        }
      ],
      "name": "safeTransferFrom",
      "outputs": [],
      "stateMutability": "nonpayable",
      "type": "function"
    },
    {
      "inputs": [
        {
          "internalType": "address",
          "name": "from",
          "type": "address"
        },
        {
          "internalType": "address",
          "name": "to",
          "type": "address"
        },
        {
          "internalType": "uint256",
          "name": "tokenId",
          "type": "uint256"
        },
        {
          "internalType": "bytes",
          "name": "data",
          "type": "bytes"
        }
      ],
      "name": "safeTransferFrom",
      "outputs": [],
      "stateMutability": "nonpayable",
      "type": "function"
    },
    {
      "inputs": [
        {
          "internalType": "address",
          "name": "operator",
          "type": "address"
        },
        {
          "internalType": "bool",
          "name": "approved",
          "type": "bool"
        }
      ],
      "name": "setApprovalForAll",
      "outputs": [],
      "stateMutability": "nonpayable",
      "type": "function"
    },
    {
      "inputs": [
        {
          "internalType": "bytes4",
          "name": "interfaceId",
          "type": "bytes4"
        }
      ],
      "name": "supportsInterface",
      "outputs": [
        {
          "internalType": "bool",
          "name": "",
          "type": "bool"
        }
      ],
      "stateMutability": "view",
      "type": "function"
    },
    {
      "inputs": [],
      "name": "symbol",
      "outputs": [
        {
          "internalType": "string",
          "name": "",
          "type": "string"
        }
      ],
      "stateMutability": "view",
      "type": "function"
    },
    {
      "inputs": [
        {
          "internalType": "uint256",
          "name": "tokenId",
          "type": "uint256"
        }
      ],
      "name": "tokenURI",
      "outputs": [
        {
          "internalType": "string",
          "name": "",
          "type": "string"
        }
      ],
      "stateMutability": "view",
      "type": "function"
    },
    {
      "inputs": [
        {
          "internalType": "address",
          "name": "from",
          "type": "address"
        },
        {
          "internalType": "address",
          "name": "to",
          "type": "address"
        },
        {
          "internalType": "uint256",
          "name": "tokenId",
          "type": "uint256"
        }
      ],
      "name": "transferFrom",
      "outputs": [],
      "stateMutability": "nonpayable",
      "type": "function"
    },
    {
      "inputs": [
        {
          "internalType": "address",
          "name": "newOwner",
          "type": "address"
        }
      ],
      "name": "transferOwnership",
      "outputs": [],
      "stateMutability": "nonpayable",
      "type": "function"
    },
    {
      "inputs": [],
      "name": "withdraw",
      "outputs": [],
      "stateMutability": "nonpayable",
      "type": "function"
    }
  ],
  "transactionHash": "0x13c324aaba018741d8822a8be5c1d2d40bdf128fc8ba19f53a221beaf2b549cc",
  "args": [
    "0x6168499c0cFfCaCD319c818142124B7A15E857ab",
    "9102",
    "0xd89b2bf150e3b9e13446986e571fb9cab24b13cea0a43ea20a6049a85cc807cc",
    "500000",
    [
      "ipfs://bafyreiflh4wjd2shgk2kguff5gl5uv6ifpdszfgfep2itve3tdzqugx7mu/metadata.json",
      "ipfs://bafyreifto6b6mnmdldfgjdnl7s4xtqiy2y3sxdzeofto4t7kabirethnqa/metadata.json",
      "ipfs://bafyreiba3gghrjx7tyxlomgt3y772wdnts5sz4hrf5esddkka42w7o22be/metadata.json"
    ],
    {
      "type": "BigNumber",
      "hex": "0x2386f26fc10000"
    }
  ],
  "numDeployments": 1,
  "solcInputHash": "180b92e6de17d2147107595f01d868a2",
  "bytecode": "0x6101206040523480156200001257600080fd5b50604051620042b1380380620042b183398181016040528101906200003891906200080b565b6040518060400160405280600f81526020017f52616e646f6d2049504653204e465400000000000000000000000000000000008152506040518060400160405280600381526020017f52494e0000000000000000000000000000000000000000000000000000000000815250878073ffffffffffffffffffffffffffffffffffffffff1660808173ffffffffffffffffffffffffffffffffffffffff1681525050508160009080519060200190620000f29291906200029e565b5080600190805190602001906200010b9291906200029e565b5050506200012e62000122620001d060201b60201c565b620001d860201b60201c565b85600860006101000a81548173ffffffffffffffffffffffffffffffffffffffff021916908373ffffffffffffffffffffffffffffffffffffffff1602179055508467ffffffffffffffff1660a08167ffffffffffffffff16815250508360c081815250508263ffffffff1660e08163ffffffff168152505081600b906003620001ba9291906200032f565b508061010081815250505050505050506200092b565b600033905090565b6000600760009054906101000a900473ffffffffffffffffffffffffffffffffffffffff16905081600760006101000a81548173ffffffffffffffffffffffffffffffffffffffff021916908373ffffffffffffffffffffffffffffffffffffffff1602179055508173ffffffffffffffffffffffffffffffffffffffff168173ffffffffffffffffffffffffffffffffffffffff167f8be0079c531659141344cd1fd0a4f28419497f9722a3daafe3b4186f6b6457e060405160405180910390a35050565b828054620002ac90620008f5565b90600052602060002090601f016020900481019282620002d057600085556200031c565b82601f10620002eb57805160ff19168380011785556200031c565b828001600101855582156200031c579182015b828111156200031b578251825591602001919060010190620002fe565b5b5090506200032b919062000396565b5090565b82805482825590600052602060002090810192821562000383579160200282015b8281111562000382578251829080519060200190620003719291906200029e565b509160200191906001019062000350565b5b509050620003929190620003b5565b5090565b5b80821115620003b157600081600090555060010162000397565b5090565b5b80821115620003d95760008181620003cf9190620003dd565b50600101620003b6565b5090565b508054620003eb90620008f5565b6000825580601f10620003ff575062000420565b601f0160209004906000526020600020908101906200041f919062000396565b5b50565b6000604051905090565b600080fd5b600080fd5b600073ffffffffffffffffffffffffffffffffffffffff82169050919050565b6000620004648262000437565b9050919050565b620004768162000457565b81146200048257600080fd5b50565b60008151905062000496816200046b565b92915050565b600067ffffffffffffffff82169050919050565b620004bb816200049c565b8114620004c757600080fd5b50565b600081519050620004db81620004b0565b92915050565b6000819050919050565b620004f681620004e1565b81146200050257600080fd5b50565b6000815190506200051681620004eb565b92915050565b600063ffffffff82169050919050565b62000537816200051c565b81146200054357600080fd5b50565b60008151905062000557816200052c565b92915050565b600080fd5b6000601f19601f8301169050919050565b7f4e487b7100000000000000000000000000000000000000000000000000000000600052604160045260246000fd5b620005ad8262000562565b810181811067ffffffffffffffff82111715620005cf57620005ce62000573565b5b80604052505050565b6000620005e462000423565b9050620005f28282620005a2565b919050565b600067ffffffffffffffff82111562000615576200061462000573565b5b602082029050919050565b600080fd5b600080fd5b600067ffffffffffffffff82111562000648576200064762000573565b5b620006538262000562565b9050602081019050919050565b60005b838110156200068057808201518184015260208101905062000663565b8381111562000690576000848401525b50505050565b6000620006ad620006a7846200062a565b620005d8565b905082815260208101848484011115620006cc57620006cb62000625565b5b620006d984828562000660565b509392505050565b600082601f830112620006f957620006f86200055d565b5b81516200070b84826020860162000696565b91505092915050565b60006200072b6200072584620005f7565b620005d8565b9050806020840283018581111562000748576200074762000620565b5b835b818110156200079657805167ffffffffffffffff8111156200077157620007706200055d565b5b808601620007808982620006e1565b855260208501945050506020810190506200074a565b5050509392505050565b600082601f830112620007b857620007b76200055d565b5b6003620007c784828562000714565b91505092915050565b6000819050919050565b620007e581620007d0565b8114620007f157600080fd5b50565b6000815190506200080581620007da565b92915050565b60008060008060008060c087890312156200082b576200082a6200042d565b5b60006200083b89828a0162000485565b96505060206200084e89828a01620004ca565b95505060406200086189828a0162000505565b94505060606200087489828a0162000546565b935050608087015167ffffffffffffffff81111562000898576200089762000432565b5b620008a689828a01620007a0565b92505060a0620008b989828a01620007f4565b9150509295509295509295565b7f4e487b7100000000000000000000000000000000000000000000000000000000600052602260045260246000fd5b600060028204905060018216806200090e57607f821691505b60208210811415620009255762000924620008c6565b5b50919050565b60805160a05160c05160e051610100516139336200097e60003960008181610d250152610f0101526000610fdd01526000610f9901526000610fba0152600081816108bf015261091301526139336000f3fe6080604052600436106101665760003560e01c806370a08231116100d1578063a70d3a411161008a578063c87b56dd11610064578063c87b56dd1461051d578063da1b9e291461055a578063e985e9c514610585578063f2fde38b146105c257610166565b8063a70d3a4114610499578063aa152491146104d6578063b88d4fde146104f457610166565b806370a082311461039b578063715018a6146103d85780637a5caab3146103ef5780638da5cb5b1461041a57806395d89b4114610445578063a22cb4651461047057610166565b80633af25975116101235780633af259751461028b5780633ccfd60b146102c857806342842e0e146102df5780635dacf5f4146103085780636352211e146103335780636e02007d1461037057610166565b806301ffc9a71461016b57806306fdde03146101a8578063081812fc146101d3578063095ea7b3146102105780631fe543e31461023957806323b872dd14610262575b600080fd5b34801561017757600080fd5b50610192600480360381019061018d91906124b8565b6105eb565b60405161019f9190612500565b60405180910390f35b3480156101b457600080fd5b506101bd6106cd565b6040516101ca91906125b4565b60405180910390f35b3480156101df57600080fd5b506101fa60048036038101906101f5919061260c565b61075f565b604051610207919061267a565b60405180910390f35b34801561021c57600080fd5b50610237600480360381019061023291906126c1565b6107a5565b005b34801561024557600080fd5b50610260600480360381019061025b9190612849565b6108bd565b005b34801561026e57600080fd5b50610289600480360381019061028491906128a5565b61097d565b005b34801561029757600080fd5b506102b260048036038101906102ad919061260c565b6109dd565b6040516102bf91906125b4565b60405180910390f35b3480156102d457600080fd5b506102dd610a8d565b005b3480156102eb57600080fd5b50610306600480360381019061030191906128a5565b610b4e565b005b34801561031457600080fd5b5061031d610b6e565b60405161032a91906129a3565b60405180910390f35b34801561033f57600080fd5b5061035a6004803603810190610355919061260c565b610b99565b604051610367919061267a565b60405180910390f35b34801561037c57600080fd5b50610385610c4b565b60405161039291906129cd565b60405180910390f35b3480156103a757600080fd5b506103c260048036038101906103bd91906129e8565b610c55565b6040516103cf91906129cd565b60405180910390f35b3480156103e457600080fd5b506103ed610d0d565b005b3480156103fb57600080fd5b50610404610d21565b60405161041191906129cd565b60405180910390f35b34801561042657600080fd5b5061042f610d49565b60405161043c919061267a565b60405180910390f35b34801561045157600080fd5b5061045a610d73565b60405161046791906125b4565b60405180910390f35b34801561047c57600080fd5b5061049760048036038101906104929190612a41565b610e05565b005b3480156104a557600080fd5b506104c060048036038101906104bb919061260c565b610e1b565b6040516104cd9190612af8565b60405180910390f35b6104de610efd565b6040516104eb91906129cd565b60405180910390f35b34801561050057600080fd5b5061051b60048036038101906105169190612bc8565b611100565b005b34801561052957600080fd5b50610544600480360381019061053f919061260c565b611162565b60405161055191906125b4565b60405180910390f35b34801561056657600080fd5b5061056f611275565b60405161057c91906129cd565b60405180910390f35b34801561059157600080fd5b506105ac60048036038101906105a79190612c4b565b61127a565b6040516105b99190612500565b60405180910390f35b3480156105ce57600080fd5b506105e960048036038101906105e491906129e8565b61130e565b005b60007f80ac58cd000000000000000000000000000000000000000000000000000000007bffffffffffffffffffffffffffffffffffffffffffffffffffffffff1916827bffffffffffffffffffffffffffffffffffffffffffffffffffffffff191614806106b657507f5b5e139f000000000000000000000000000000000000000000000000000000007bffffffffffffffffffffffffffffffffffffffffffffffffffffffff1916827bffffffffffffffffffffffffffffffffffffffffffffffffffffffff1916145b806106c657506106c582611392565b5b9050919050565b6060600080546106dc90612cba565b80601f016020809104026020016040519081016040528092919081815260200182805461070890612cba565b80156107555780601f1061072a57610100808354040283529160200191610755565b820191906000526020600020905b81548152906001019060200180831161073857829003601f168201915b5050505050905090565b600061076a826113fc565b6004600083815260200190815260200160002060009054906101000a900473ffffffffffffffffffffffffffffffffffffffff169050919050565b60006107b082610b99565b90508073ffffffffffffffffffffffffffffffffffffffff168373ffffffffffffffffffffffffffffffffffffffff161415610821576040517f08c379a000000000000000000000000000000000000000000000000000000000815260040161081890612d5e565b60405180910390fd5b8073ffffffffffffffffffffffffffffffffffffffff16610840611447565b73ffffffffffffffffffffffffffffffffffffffff16148061086f575061086e81610869611447565b61127a565b5b6108ae576040517f08c379a00000000000000000000000000000000000000000000000000000000081526004016108a590612df0565b60405180910390fd5b6108b8838361144f565b505050565b7f000000000000000000000000000000000000000000000000000000000000000073ffffffffffffffffffffffffffffffffffffffff163373ffffffffffffffffffffffffffffffffffffffff161461096f57337f00000000000000000000000000000000000000000000000000000000000000006040517f1cf993f4000000000000000000000000000000000000000000000000000000008152600401610966929190612e10565b60405180910390fd5b6109798282611508565b5050565b61098e610988611447565b826116a7565b6109cd576040517f08c379a00000000000000000000000000000000000000000000000000000000081526004016109c490612eab565b60405180910390fd5b6109d883838361173c565b505050565b6060600b82815481106109f3576109f2612ecb565b5b906000526020600020018054610a0890612cba565b80601f0160208091040260200160405190810160405280929190818152602001828054610a3490612cba565b8015610a815780601f10610a5657610100808354040283529160200191610a81565b820191906000526020600020905b815481529060010190602001808311610a6457829003601f168201915b50505050509050919050565b610a956119a3565b60004790506000610aa4610d49565b905060008173ffffffffffffffffffffffffffffffffffffffff1683604051610acc90612f2b565b60006040518083038185875af1925050503d8060008114610b09576040519150601f19603f3d011682016040523d82523d6000602084013e610b0e565b606091505b5050905080610b49576040517f3dfc4c8e00000000000000000000000000000000000000000000000000000000815260040160405180910390fd5b505050565b610b6983838360405180602001604052806000815250611100565b505050565b610b76612387565b6040518060600160405280600a8152602001601e81526020016064815250905090565b6000806002600084815260200190815260200160002060009054906101000a900473ffffffffffffffffffffffffffffffffffffffff169050600073ffffffffffffffffffffffffffffffffffffffff168173ffffffffffffffffffffffffffffffffffffffff161415610c42576040517f08c379a0000000000000000000000000000000000000000000000000000000008152600401610c3990612f8c565b60405180910390fd5b80915050919050565b6000600a54905090565b60008073ffffffffffffffffffffffffffffffffffffffff168273ffffffffffffffffffffffffffffffffffffffff161415610cc6576040517f08c379a0000000000000000000000000000000000000000000000000000000008152600401610cbd9061301e565b60405180910390fd5b600360008373ffffffffffffffffffffffffffffffffffffffff1673ffffffffffffffffffffffffffffffffffffffff168152602001908152602001600020549050919050565b610d156119a3565b610d1f6000611a21565b565b60007f0000000000000000000000000000000000000000000000000000000000000000905090565b6000600760009054906101000a900473ffffffffffffffffffffffffffffffffffffffff16905090565b606060018054610d8290612cba565b80601f0160208091040260200160405190810160405280929190818152602001828054610dae90612cba565b8015610dfb5780601f10610dd057610100808354040283529160200191610dfb565b820191906000526020600020905b815481529060010190602001808311610dde57829003601f168201915b5050505050905090565b610e17610e10611447565b8383611ae7565b5050565b600080600090506000610e2c610b6e565b905060005b6003811015610ec557828510158015610e6b5750818160038110610e5857610e57612ecb565b5b602002015183610e68919061306d565b85105b15610e8d57806002811115610e8357610e82612a81565b5b9350505050610ef8565b818160038110610ea057610e9f612ecb565b5b602002015183610eb0919061306d565b92508080610ebd906130c3565b915050610e31565b506040517f12806c9d00000000000000000000000000000000000000000000000000000000815260040160405180910390fd5b919050565b60007f0000000000000000000000000000000000000000000000000000000000000000341015610f59576040517fb90f491000000000000000000000000000000000000000000000000000000000815260040160405180910390fd5b600860009054906101000a900473ffffffffffffffffffffffffffffffffffffffff1673ffffffffffffffffffffffffffffffffffffffff16635d3b1d307f00000000000000000000000000000000000000000000000000000000000000007f000000000000000000000000000000000000000000000000000000000000000060037f000000000000000000000000000000000000000000000000000000000000000060016040518663ffffffff1660e01b815260040161101e959493929190613184565b602060405180830381600087803b15801561103857600080fd5b505af115801561104c573d6000803e3d6000fd5b505050506040513d601f19601f8201168201806040525081019061107091906131ec565b9050336009600083815260200190815260200160002060006101000a81548173ffffffffffffffffffffffffffffffffffffffff021916908373ffffffffffffffffffffffffffffffffffffffff1602179055507f4e1c2f1eae56e29ec039a2b882eec626e6c420ed5a5b93a203c8b8b695e911b181336040516110f5929190613219565b60405180910390a190565b61111161110b611447565b836116a7565b611150576040517f08c379a000000000000000000000000000000000000000000000000000000000815260040161114790612eab565b60405180910390fd5b61115c84848484611c54565b50505050565b606061116d826113fc565b600060066000848152602001908152602001600020805461118d90612cba565b80601f01602080910402602001604051908101604052809291908181526020018280546111b990612cba565b80156112065780601f106111db57610100808354040283529160200191611206565b820191906000526020600020905b8154815290600101906020018083116111e957829003601f168201915b505050505090506000611217611cb0565b905060008151141561122d578192505050611270565b60008251111561126257808260405160200161124a92919061327e565b60405160208183030381529060405292505050611270565b61126b84611cc7565b925050505b919050565b606481565b6000600560008473ffffffffffffffffffffffffffffffffffffffff1673ffffffffffffffffffffffffffffffffffffffff16815260200190815260200160002060008373ffffffffffffffffffffffffffffffffffffffff1673ffffffffffffffffffffffffffffffffffffffff16815260200190815260200160002060009054906101000a900460ff16905092915050565b6113166119a3565b600073ffffffffffffffffffffffffffffffffffffffff168173ffffffffffffffffffffffffffffffffffffffff161415611386576040517f08c379a000000000000000000000000000000000000000000000000000000000815260040161137d90613314565b60405180910390fd5b61138f81611a21565b50565b60007f01ffc9a7000000000000000000000000000000000000000000000000000000007bffffffffffffffffffffffffffffffffffffffffffffffffffffffff1916827bffffffffffffffffffffffffffffffffffffffffffffffffffffffff1916149050919050565b61140581611d2f565b611444576040517f08c379a000000000000000000000000000000000000000000000000000000000815260040161143b90612f8c565b60405180910390fd5b50565b600033905090565b816004600083815260200190815260200160002060006101000a81548173ffffffffffffffffffffffffffffffffffffffff021916908373ffffffffffffffffffffffffffffffffffffffff160217905550808273ffffffffffffffffffffffffffffffffffffffff166114c283610b99565b73ffffffffffffffffffffffffffffffffffffffff167f8c5be1e5ebec7d5bd14f71427d1e84f3dd0314c0f7b2291e5b200ac8c7c3b92560405160405180910390a45050565b60006009600084815260200190815260200160002060009054906101000a900473ffffffffffffffffffffffffffffffffffffffff1690506000600a549050600060648460008151811061155f5761155e612ecb565b5b60200260200101516115719190613363565b9050600061157e82610e1b565b90506001600a6000828254611593919061306d565b925050819055506115a48484611d9b565b61166683600b8360028111156115bd576115bc612a81565b5b815481106115ce576115cd612ecb565b5b9060005260206000200180546115e390612cba565b80601f016020809104026020016040519081016040528092919081815260200182805461160f90612cba565b801561165c5780601f106116315761010080835404028352916020019161165c565b820191906000526020600020905b81548152906001019060200180831161163f57829003601f168201915b5050505050611db9565b7fab79897476febbd649710b1bd1dc3e93a316d3dee65f65b022ab89a4b7e206b58185604051611697929190613394565b60405180910390a1505050505050565b6000806116b383610b99565b90508073ffffffffffffffffffffffffffffffffffffffff168473ffffffffffffffffffffffffffffffffffffffff1614806116f557506116f4818561127a565b5b8061173357508373ffffffffffffffffffffffffffffffffffffffff1661171b8461075f565b73ffffffffffffffffffffffffffffffffffffffff16145b91505092915050565b8273ffffffffffffffffffffffffffffffffffffffff1661175c82610b99565b73ffffffffffffffffffffffffffffffffffffffff16146117b2576040517f08c379a00000000000000000000000000000000000000000000000000000000081526004016117a99061342f565b60405180910390fd5b600073ffffffffffffffffffffffffffffffffffffffff168273ffffffffffffffffffffffffffffffffffffffff161415611822576040517f08c379a0000000000000000000000000000000000000000000000000000000008152600401611819906134c1565b60405180910390fd5b61182d838383611e2d565b61183860008261144f565b6001600360008573ffffffffffffffffffffffffffffffffffffffff1673ffffffffffffffffffffffffffffffffffffffff168152602001908152602001600020600082825461188891906134e1565b925050819055506001600360008473ffffffffffffffffffffffffffffffffffffffff1673ffffffffffffffffffffffffffffffffffffffff16815260200190815260200160002060008282546118df919061306d565b92505081905550816002600083815260200190815260200160002060006101000a81548173ffffffffffffffffffffffffffffffffffffffff021916908373ffffffffffffffffffffffffffffffffffffffff160217905550808273ffffffffffffffffffffffffffffffffffffffff168473ffffffffffffffffffffffffffffffffffffffff167fddf252ad1be2c89b69c2b068fc378daa952ba7f163c4a11628f55a4df523b3ef60405160405180910390a461199e838383611e32565b505050565b6119ab611447565b73ffffffffffffffffffffffffffffffffffffffff166119c9610d49565b73ffffffffffffffffffffffffffffffffffffffff1614611a1f576040517f08c379a0000000000000000000000000000000000000000000000000000000008152600401611a1690613561565b60405180910390fd5b565b6000600760009054906101000a900473ffffffffffffffffffffffffffffffffffffffff16905081600760006101000a81548173ffffffffffffffffffffffffffffffffffffffff021916908373ffffffffffffffffffffffffffffffffffffffff1602179055508173ffffffffffffffffffffffffffffffffffffffff168173ffffffffffffffffffffffffffffffffffffffff167f8be0079c531659141344cd1fd0a4f28419497f9722a3daafe3b4186f6b6457e060405160405180910390a35050565b8173ffffffffffffffffffffffffffffffffffffffff168373ffffffffffffffffffffffffffffffffffffffff161415611b56576040517f08c379a0000000000000000000000000000000000000000000000000000000008152600401611b4d906135cd565b60405180910390fd5b80600560008573ffffffffffffffffffffffffffffffffffffffff1673ffffffffffffffffffffffffffffffffffffffff16815260200190815260200160002060008473ffffffffffffffffffffffffffffffffffffffff1673ffffffffffffffffffffffffffffffffffffffff16815260200190815260200160002060006101000a81548160ff0219169083151502179055508173ffffffffffffffffffffffffffffffffffffffff168373ffffffffffffffffffffffffffffffffffffffff167f17307eab39ab6107e8899845ad3d59bd9653f200f220920489ca2b5937696c3183604051611c479190612500565b60405180910390a3505050565b611c5f84848461173c565b611c6b84848484611e37565b611caa576040517f08c379a0000000000000000000000000000000000000000000000000000000008152600401611ca19061365f565b60405180910390fd5b50505050565b606060405180602001604052806000815250905090565b6060611cd2826113fc565b6000611cdc611cb0565b90506000815111611cfc5760405180602001604052806000815250611d27565b80611d0684611fce565b604051602001611d1792919061327e565b6040516020818303038152906040525b915050919050565b60008073ffffffffffffffffffffffffffffffffffffffff166002600084815260200190815260200160002060009054906101000a900473ffffffffffffffffffffffffffffffffffffffff1673ffffffffffffffffffffffffffffffffffffffff1614159050919050565b611db582826040518060200160405280600081525061212f565b5050565b611dc282611d2f565b611e01576040517f08c379a0000000000000000000000000000000000000000000000000000000008152600401611df8906136f1565b60405180910390fd5b80600660008481526020019081526020016000209080519060200190611e289291906123a9565b505050565b505050565b505050565b6000611e588473ffffffffffffffffffffffffffffffffffffffff1661218a565b15611fc1578373ffffffffffffffffffffffffffffffffffffffff1663150b7a02611e81611447565b8786866040518563ffffffff1660e01b8152600401611ea39493929190613766565b602060405180830381600087803b158015611ebd57600080fd5b505af1925050508015611eee57506040513d601f19601f82011682018060405250810190611eeb91906137c7565b60015b611f71573d8060008114611f1e576040519150601f19603f3d011682016040523d82523d6000602084013e611f23565b606091505b50600081511415611f69576040517f08c379a0000000000000000000000000000000000000000000000000000000008152600401611f609061365f565b60405180910390fd5b805181602001fd5b63150b7a0260e01b7bffffffffffffffffffffffffffffffffffffffffffffffffffffffff1916817bffffffffffffffffffffffffffffffffffffffffffffffffffffffff191614915050611fc6565b600190505b949350505050565b60606000821415612016576040518060400160405280600181526020017f3000000000000000000000000000000000000000000000000000000000000000815250905061212a565b600082905060005b60008214612048578080612031906130c3565b915050600a8261204191906137f4565b915061201e565b60008167ffffffffffffffff81111561206457612063612706565b5b6040519080825280601f01601f1916602001820160405280156120965781602001600182028036833780820191505090505b5090505b60008514612123576001826120af91906134e1565b9150600a856120be9190613363565b60306120ca919061306d565b60f81b8183815181106120e0576120df612ecb565b5b60200101907effffffffffffffffffffffffffffffffffffffffffffffffffffffffffffff1916908160001a905350600a8561211c91906137f4565b945061209a565b8093505050505b919050565b61213983836121ad565b6121466000848484611e37565b612185576040517f08c379a000000000000000000000000000000000000000000000000000000000815260040161217c9061365f565b60405180910390fd5b505050565b6000808273ffffffffffffffffffffffffffffffffffffffff163b119050919050565b600073ffffffffffffffffffffffffffffffffffffffff168273ffffffffffffffffffffffffffffffffffffffff16141561221d576040517f08c379a000000000000000000000000000000000000000000000000000000000815260040161221490613871565b60405180910390fd5b61222681611d2f565b15612266576040517f08c379a000000000000000000000000000000000000000000000000000000000815260040161225d906138dd565b60405180910390fd5b61227260008383611e2d565b6001600360008473ffffffffffffffffffffffffffffffffffffffff1673ffffffffffffffffffffffffffffffffffffffff16815260200190815260200160002060008282546122c2919061306d565b92505081905550816002600083815260200190815260200160002060006101000a81548173ffffffffffffffffffffffffffffffffffffffff021916908373ffffffffffffffffffffffffffffffffffffffff160217905550808273ffffffffffffffffffffffffffffffffffffffff16600073ffffffffffffffffffffffffffffffffffffffff167fddf252ad1be2c89b69c2b068fc378daa952ba7f163c4a11628f55a4df523b3ef60405160405180910390a461238360008383611e32565b5050565b6040518060600160405280600390602082028036833780820191505090505090565b8280546123b590612cba565b90600052602060002090601f0160209004810192826123d7576000855561241e565b82601f106123f057805160ff191683800117855561241e565b8280016001018555821561241e579182015b8281111561241d578251825591602001919060010190612402565b5b50905061242b919061242f565b5090565b5b80821115612448576000816000905550600101612430565b5090565b6000604051905090565b600080fd5b600080fd5b60007fffffffff0000000000000000000000000000000000000000000000000000000082169050919050565b61249581612460565b81146124a057600080fd5b50565b6000813590506124b28161248c565b92915050565b6000602082840312156124ce576124cd612456565b5b60006124dc848285016124a3565b91505092915050565b60008115159050919050565b6124fa816124e5565b82525050565b600060208201905061251560008301846124f1565b92915050565b600081519050919050565b600082825260208201905092915050565b60005b8381101561255557808201518184015260208101905061253a565b83811115612564576000848401525b50505050565b6000601f19601f8301169050919050565b60006125868261251b565b6125908185612526565b93506125a0818560208601612537565b6125a98161256a565b840191505092915050565b600060208201905081810360008301526125ce818461257b565b905092915050565b6000819050919050565b6125e9816125d6565b81146125f457600080fd5b50565b600081359050612606816125e0565b92915050565b60006020828403121561262257612621612456565b5b6000612630848285016125f7565b91505092915050565b600073ffffffffffffffffffffffffffffffffffffffff82169050919050565b600061266482612639565b9050919050565b61267481612659565b82525050565b600060208201905061268f600083018461266b565b92915050565b61269e81612659565b81146126a957600080fd5b50565b6000813590506126bb81612695565b92915050565b600080604083850312156126d8576126d7612456565b5b60006126e6858286016126ac565b92505060206126f7858286016125f7565b9150509250929050565b600080fd5b7f4e487b7100000000000000000000000000000000000000000000000000000000600052604160045260246000fd5b61273e8261256a565b810181811067ffffffffffffffff8211171561275d5761275c612706565b5b80604052505050565b600061277061244c565b905061277c8282612735565b919050565b600067ffffffffffffffff82111561279c5761279b612706565b5b602082029050602081019050919050565b600080fd5b60006127c56127c084612781565b612766565b905080838252602082019050602084028301858111156127e8576127e76127ad565b5b835b8181101561281157806127fd88826125f7565b8452602084019350506020810190506127ea565b5050509392505050565b600082601f8301126128305761282f612701565b5b81356128408482602086016127b2565b91505092915050565b600080604083850312156128605761285f612456565b5b600061286e858286016125f7565b925050602083013567ffffffffffffffff81111561288f5761288e61245b565b5b61289b8582860161281b565b9150509250929050565b6000806000606084860312156128be576128bd612456565b5b60006128cc868287016126ac565b93505060206128dd868287016126ac565b92505060406128ee868287016125f7565b9150509250925092565b600060039050919050565b600081905092915050565b6000819050919050565b612921816125d6565b82525050565b60006129338383612918565b60208301905092915050565b6000602082019050919050565b612955816128f8565b61295f8184612903565b925061296a8261290e565b8060005b8381101561299b5781516129828782612927565b965061298d8361293f565b92505060018101905061296e565b505050505050565b60006060820190506129b8600083018461294c565b92915050565b6129c7816125d6565b82525050565b60006020820190506129e260008301846129be565b92915050565b6000602082840312156129fe576129fd612456565b5b6000612a0c848285016126ac565b91505092915050565b612a1e816124e5565b8114612a2957600080fd5b50565b600081359050612a3b81612a15565b92915050565b60008060408385031215612a5857612a57612456565b5b6000612a66858286016126ac565b9250506020612a7785828601612a2c565b9150509250929050565b7f4e487b7100000000000000000000000000000000000000000000000000000000600052602160045260246000fd5b60038110612ac157612ac0612a81565b5b50565b6000819050612ad282612ab0565b919050565b6000612ae282612ac4565b9050919050565b612af281612ad7565b82525050565b6000602082019050612b0d6000830184612ae9565b92915050565b600080fd5b600067ffffffffffffffff821115612b3357612b32612706565b5b612b3c8261256a565b9050602081019050919050565b82818337600083830152505050565b6000612b6b612b6684612b18565b612766565b905082815260208101848484011115612b8757612b86612b13565b5b612b92848285612b49565b509392505050565b600082601f830112612baf57612bae612701565b5b8135612bbf848260208601612b58565b91505092915050565b60008060008060808587031215612be257612be1612456565b5b6000612bf0878288016126ac565b9450506020612c01878288016126ac565b9350506040612c12878288016125f7565b925050606085013567ffffffffffffffff811115612c3357612c3261245b565b5b612c3f87828801612b9a565b91505092959194509250565b60008060408385031215612c6257612c61612456565b5b6000612c70858286016126ac565b9250506020612c81858286016126ac565b9150509250929050565b7f4e487b7100000000000000000000000000000000000000000000000000000000600052602260045260246000fd5b60006002820490506001821680612cd257607f821691505b60208210811415612ce657612ce5612c8b565b5b50919050565b7f4552433732313a20617070726f76616c20746f2063757272656e74206f776e6560008201527f7200000000000000000000000000000000000000000000000000000000000000602082015250565b6000612d48602183612526565b9150612d5382612cec565b604082019050919050565b60006020820190508181036000830152612d7781612d3b565b9050919050565b7f4552433732313a20617070726f76652063616c6c6572206973206e6f7420746f60008201527f6b656e206f776e6572206e6f7220617070726f76656420666f7220616c6c0000602082015250565b6000612dda603e83612526565b9150612de582612d7e565b604082019050919050565b60006020820190508181036000830152612e0981612dcd565b9050919050565b6000604082019050612e25600083018561266b565b612e32602083018461266b565b9392505050565b7f4552433732313a2063616c6c6572206973206e6f7420746f6b656e206f776e6560008201527f72206e6f7220617070726f766564000000000000000000000000000000000000602082015250565b6000612e95602e83612526565b9150612ea082612e39565b604082019050919050565b60006020820190508181036000830152612ec481612e88565b9050919050565b7f4e487b7100000000000000000000000000000000000000000000000000000000600052603260045260246000fd5b600081905092915050565b50565b6000612f15600083612efa565b9150612f2082612f05565b600082019050919050565b6000612f3682612f08565b9150819050919050565b7f4552433732313a20696e76616c696420746f6b656e2049440000000000000000600082015250565b6000612f76601883612526565b9150612f8182612f40565b602082019050919050565b60006020820190508181036000830152612fa581612f69565b9050919050565b7f4552433732313a2061646472657373207a65726f206973206e6f74206120766160008201527f6c6964206f776e65720000000000000000000000000000000000000000000000602082015250565b6000613008602983612526565b915061301382612fac565b604082019050919050565b6000602082019050818103600083015261303781612ffb565b9050919050565b7f4e487b7100000000000000000000000000000000000000000000000000000000600052601160045260246000fd5b6000613078826125d6565b9150613083836125d6565b9250827fffffffffffffffffffffffffffffffffffffffffffffffffffffffffffffffff038211156130b8576130b761303e565b5b828201905092915050565b60006130ce826125d6565b91507fffffffffffffffffffffffffffffffffffffffffffffffffffffffffffffffff8214156131015761310061303e565b5b600182019050919050565b6000819050919050565b61311f8161310c565b82525050565b600067ffffffffffffffff82169050919050565b61314281613125565b82525050565b600061ffff82169050919050565b61315f81613148565b82525050565b600063ffffffff82169050919050565b61317e81613165565b82525050565b600060a0820190506131996000830188613116565b6131a66020830187613139565b6131b36040830186613156565b6131c06060830185613175565b6131cd6080830184613175565b9695505050505050565b6000815190506131e6816125e0565b92915050565b60006020828403121561320257613201612456565b5b6000613210848285016131d7565b91505092915050565b600060408201905061322e60008301856129be565b61323b602083018461266b565b9392505050565b600081905092915050565b60006132588261251b565b6132628185613242565b9350613272818560208601612537565b80840191505092915050565b600061328a828561324d565b9150613296828461324d565b91508190509392505050565b7f4f776e61626c653a206e6577206f776e657220697320746865207a65726f206160008201527f6464726573730000000000000000000000000000000000000000000000000000602082015250565b60006132fe602683612526565b9150613309826132a2565b604082019050919050565b6000602082019050818103600083015261332d816132f1565b9050919050565b7f4e487b7100000000000000000000000000000000000000000000000000000000600052601260045260246000fd5b600061336e826125d6565b9150613379836125d6565b92508261338957613388613334565b5b828206905092915050565b60006040820190506133a96000830185612ae9565b6133b6602083018461266b565b9392505050565b7f4552433732313a207472616e736665722066726f6d20696e636f72726563742060008201527f6f776e6572000000000000000000000000000000000000000000000000000000602082015250565b6000613419602583612526565b9150613424826133bd565b604082019050919050565b600060208201905081810360008301526134488161340c565b9050919050565b7f4552433732313a207472616e7366657220746f20746865207a65726f2061646460008201527f7265737300000000000000000000000000000000000000000000000000000000602082015250565b60006134ab602483612526565b91506134b68261344f565b604082019050919050565b600060208201905081810360008301526134da8161349e565b9050919050565b60006134ec826125d6565b91506134f7836125d6565b92508282101561350a5761350961303e565b5b828203905092915050565b7f4f776e61626c653a2063616c6c6572206973206e6f7420746865206f776e6572600082015250565b600061354b602083612526565b915061355682613515565b602082019050919050565b6000602082019050818103600083015261357a8161353e565b9050919050565b7f4552433732313a20617070726f766520746f2063616c6c657200000000000000600082015250565b60006135b7601983612526565b91506135c282613581565b602082019050919050565b600060208201905081810360008301526135e6816135aa565b9050919050565b7f4552433732313a207472616e7366657220746f206e6f6e20455243373231526560008201527f63656976657220696d706c656d656e7465720000000000000000000000000000602082015250565b6000613649603283612526565b9150613654826135ed565b604082019050919050565b600060208201905081810360008301526136788161363c565b9050919050565b7f45524337323155524953746f726167653a2055524920736574206f66206e6f6e60008201527f6578697374656e7420746f6b656e000000000000000000000000000000000000602082015250565b60006136db602e83612526565b91506136e68261367f565b604082019050919050565b6000602082019050818103600083015261370a816136ce565b9050919050565b600081519050919050565b600082825260208201905092915050565b600061373882613711565b613742818561371c565b9350613752818560208601612537565b61375b8161256a565b840191505092915050565b600060808201905061377b600083018761266b565b613788602083018661266b565b61379560408301856129be565b81810360608301526137a7818461372d565b905095945050505050565b6000815190506137c18161248c565b92915050565b6000602082840312156137dd576137dc612456565b5b60006137eb848285016137b2565b91505092915050565b60006137ff826125d6565b915061380a836125d6565b92508261381a57613819613334565b5b828204905092915050565b7f4552433732313a206d696e7420746f20746865207a65726f2061646472657373600082015250565b600061385b602083612526565b915061386682613825565b602082019050919050565b6000602082019050818103600083015261388a8161384e565b9050919050565b7f4552433732313a20746f6b656e20616c7265616479206d696e74656400000000600082015250565b60006138c7601c83612526565b91506138d282613891565b602082019050919050565b600060208201905081810360008301526138f6816138ba565b905091905056fea26469706673582212206f1137a1ce04c63af10e34de2e164ba06d3954f87a869801df7d37d691a8d2a464736f6c63430008090033",
  "devdoc": {
    "kind": "dev",
    "methods": {
      "approve(address,uint256)": {
        "details": "See {IERC721-approve}."
      },
      "balanceOf(address)": {
        "details": "See {IERC721-balanceOf}."
      },
      "getApproved(uint256)": {
        "details": "See {IERC721-getApproved}."
      },
      "isApprovedForAll(address,address)": {
        "details": "See {IERC721-isApprovedForAll}."
      },
      "name()": {
        "details": "See {IERC721Metadata-name}."
      },
      "owner()": {
        "details": "Returns the address of the current owner."
      },
      "ownerOf(uint256)": {
        "details": "See {IERC721-ownerOf}."
      },
      "renounceOwnership()": {
        "details": "Leaves the contract without owner. It will not be possible to call `onlyOwner` functions anymore. Can only be called by the current owner. NOTE: Renouncing ownership will leave the contract without an owner, thereby removing any functionality that is only available to the owner."
      },
      "safeTransferFrom(address,address,uint256)": {
        "details": "See {IERC721-safeTransferFrom}."
      },
      "safeTransferFrom(address,address,uint256,bytes)": {
        "details": "See {IERC721-safeTransferFrom}."
      },
      "setApprovalForAll(address,bool)": {
        "details": "See {IERC721-setApprovalForAll}."
      },
      "supportsInterface(bytes4)": {
        "details": "See {IERC165-supportsInterface}."
      },
      "symbol()": {
        "details": "See {IERC721Metadata-symbol}."
      },
      "tokenURI(uint256)": {
        "details": "See {IERC721Metadata-tokenURI}."
      },
      "transferFrom(address,address,uint256)": {
        "details": "See {IERC721-transferFrom}."
      },
      "transferOwnership(address)": {
        "details": "Transfers ownership of the contract to a new account (`newOwner`). Can only be called by the current owner."
      }
    },
    "version": 1
  },
  "userdoc": {
    "kind": "user",
    "methods": {},
    "version": 1
  },
  "storageLayout": {
    "storage": [
      {
        "astId": 285,
        "contract": "contracts/RandomIpfsNft.sol:RandomIpfsNft",
        "label": "_name",
        "offset": 0,
        "slot": "0",
        "type": "t_string_storage"
      },
      {
        "astId": 287,
        "contract": "contracts/RandomIpfsNft.sol:RandomIpfsNft",
        "label": "_symbol",
        "offset": 0,
        "slot": "1",
        "type": "t_string_storage"
      },
      {
        "astId": 291,
        "contract": "contracts/RandomIpfsNft.sol:RandomIpfsNft",
        "label": "_owners",
        "offset": 0,
        "slot": "2",
        "type": "t_mapping(t_uint256,t_address)"
      },
      {
        "astId": 295,
        "contract": "contracts/RandomIpfsNft.sol:RandomIpfsNft",
        "label": "_balances",
        "offset": 0,
        "slot": "3",
        "type": "t_mapping(t_address,t_uint256)"
      },
      {
        "astId": 299,
        "contract": "contracts/RandomIpfsNft.sol:RandomIpfsNft",
        "label": "_tokenApprovals",
        "offset": 0,
        "slot": "4",
        "type": "t_mapping(t_uint256,t_address)"
      },
      {
        "astId": 305,
        "contract": "contracts/RandomIpfsNft.sol:RandomIpfsNft",
        "label": "_operatorApprovals",
        "offset": 0,
        "slot": "5",
        "type": "t_mapping(t_address,t_mapping(t_address,t_bool))"
      },
      {
        "astId": 1273,
        "contract": "contracts/RandomIpfsNft.sol:RandomIpfsNft",
        "label": "_tokenURIs",
        "offset": 0,
        "slot": "6",
        "type": "t_mapping(t_uint256,t_string_storage)"
      },
      {
        "astId": 154,
        "contract": "contracts/RandomIpfsNft.sol:RandomIpfsNft",
        "label": "_owner",
        "offset": 0,
        "slot": "7",
        "type": "t_address"
      },
      {
        "astId": 2016,
        "contract": "contracts/RandomIpfsNft.sol:RandomIpfsNft",
        "label": "i_vrfCoordinatorV2",
        "offset": 0,
        "slot": "8",
        "type": "t_contract(VRFCoordinatorV2Interface)146"
      },
      {
        "astId": 2032,
        "contract": "contracts/RandomIpfsNft.sol:RandomIpfsNft",
        "label": "s_requestIdToSender",
        "offset": 0,
        "slot": "9",
        "type": "t_mapping(t_uint256,t_address)"
      },
      {
        "astId": 2034,
        "contract": "contracts/RandomIpfsNft.sol:RandomIpfsNft",
        "label": "s_tokenCounter",
        "offset": 0,
        "slot": "10",
        "type": "t_uint256"
      },
      {
        "astId": 2040,
        "contract": "contracts/RandomIpfsNft.sol:RandomIpfsNft",
        "label": "s_dogTokenUris",
        "offset": 0,
        "slot": "11",
        "type": "t_array(t_string_storage)dyn_storage"
      }
    ],
    "types": {
      "t_address": {
        "encoding": "inplace",
        "label": "address",
        "numberOfBytes": "20"
      },
      "t_array(t_string_storage)dyn_storage": {
        "base": "t_string_storage",
        "encoding": "dynamic_array",
        "label": "string[]",
        "numberOfBytes": "32"
      },
      "t_bool": {
        "encoding": "inplace",
        "label": "bool",
        "numberOfBytes": "1"
      },
      "t_contract(VRFCoordinatorV2Interface)146": {
        "encoding": "inplace",
        "label": "contract VRFCoordinatorV2Interface",
        "numberOfBytes": "20"
      },
      "t_mapping(t_address,t_bool)": {
        "encoding": "mapping",
        "key": "t_address",
        "label": "mapping(address => bool)",
        "numberOfBytes": "32",
        "value": "t_bool"
      },
      "t_mapping(t_address,t_mapping(t_address,t_bool))": {
        "encoding": "mapping",
        "key": "t_address",
        "label": "mapping(address => mapping(address => bool))",
        "numberOfBytes": "32",
        "value": "t_mapping(t_address,t_bool)"
      },
      "t_mapping(t_address,t_uint256)": {
        "encoding": "mapping",
        "key": "t_address",
        "label": "mapping(address => uint256)",
        "numberOfBytes": "32",
        "value": "t_uint256"
      },
      "t_mapping(t_uint256,t_address)": {
        "encoding": "mapping",
        "key": "t_uint256",
        "label": "mapping(uint256 => address)",
        "numberOfBytes": "32",
        "value": "t_address"
      },
      "t_mapping(t_uint256,t_string_storage)": {
        "encoding": "mapping",
        "key": "t_uint256",
        "label": "mapping(uint256 => string)",
        "numberOfBytes": "32",
        "value": "t_string_storage"
      },
      "t_string_storage": {
        "encoding": "bytes",
        "label": "string",
        "numberOfBytes": "32"
      },
      "t_uint256": {
        "encoding": "inplace",
        "label": "uint256",
        "numberOfBytes": "32"
      }
    }
  }
}